{
	"HealthContract.sol": {
		"HealthRecord": {
			"abi": [
				{
					"anonymous": false,
					"inputs": [
						{
							"indexed": true,
							"internalType": "address",
							"name": "patient",
							"type": "address"
						},
						{
							"indexed": false,
							"internalType": "string",
							"name": "ipfsHash",
							"type": "string"
						},
						{
							"indexed": false,
							"internalType": "bool",
							"name": "isCritical",
							"type": "bool"
						},
						{
							"indexed": false,
							"internalType": "uint256",
							"name": "timestamp",
							"type": "uint256"
						}
					],
					"name": "RecordAdded",
					"type": "event"
				},
				{
					"inputs": [
						{
							"internalType": "address",
							"name": "_patient",
							"type": "address"
						},
						{
							"internalType": "string",
							"name": "_ipfsHash",
							"type": "string"
						},
						{
							"internalType": "bool",
							"name": "_isCritical",
							"type": "bool"
						}
					],
					"name": "addRecord",
					"outputs": [],
					"stateMutability": "nonpayable",
					"type": "function"
				},
				{
					"inputs": [
						{
							"internalType": "address",
							"name": "_patient",
							"type": "address"
						}
					],
					"name": "getRecords",
					"outputs": [
						{
							"components": [
								{
									"internalType": "string",
									"name": "ipfsHash",
									"type": "string"
								},
								{
									"internalType": "uint256",
									"name": "timestamp",
									"type": "uint256"
								},
								{
									"internalType": "bool",
									"name": "isCritical",
									"type": "bool"
								},
								{
									"internalType": "address",
									"name": "deviceId",
									"type": "address"
								}
							],
							"internalType": "struct HealthRecord.Record[]",
							"name": "",
							"type": "tuple[]"
						}
					],
					"stateMutability": "view",
					"type": "function"
				},
				{
					"inputs": [
						{
							"internalType": "address",
							"name": "",
							"type": "address"
						},
						{
							"internalType": "uint256",
							"name": "",
							"type": "uint256"
						}
					],
					"name": "patientRecords",
					"outputs": [
						{
							"internalType": "string",
							"name": "ipfsHash",
							"type": "string"
						},
						{
							"internalType": "uint256",
							"name": "timestamp",
							"type": "uint256"
						},
						{
							"internalType": "bool",
							"name": "isCritical",
							"type": "bool"
						},
						{
							"internalType": "address",
							"name": "deviceId",
							"type": "address"
						}
					],
					"stateMutability": "view",
					"type": "function"
				}
			],
			"devdoc": {
				"kind": "dev",
				"methods": {},
				"version": 1
			},
			"evm": {
				"assembly": "    /* \"HealthContract.sol\":57:1517  contract HealthRecord {... */\n  mstore(0x40, 0x80)\n  callvalue\n  dup1\n  iszero\n  tag_1\n  jumpi\n  0x00\n  dup1\n  revert\ntag_1:\n  pop\n  dataSize(sub_0)\n  dup1\n  dataOffset(sub_0)\n  0x00\n  codecopy\n  0x00\n  return\nstop\n\nsub_0: assembly {\n        /* \"HealthContract.sol\":57:1517  contract HealthRecord {... */\n      mstore(0x40, 0x80)\n      callvalue\n      dup1\n      iszero\n      tag_1\n      jumpi\n      0x00\n      dup1\n      revert\n    tag_1:\n      pop\n      jumpi(tag_2, lt(calldatasize, 0x04))\n      shr(0xe0, calldataload(0x00))\n      dup1\n      0x1a156f49\n      eq\n      tag_3\n      jumpi\n      dup1\n      0x94f0df61\n      eq\n      tag_4\n      jumpi\n      dup1\n      0xa0076e84\n      eq\n      tag_5\n      jumpi\n    tag_2:\n      0x00\n      dup1\n      revert\n        /* \"HealthContract.sol\":768:1340  function addRecord(address _patient, string memory _ipfsHash, bool _isCritical) public {... */\n    tag_3:\n      tag_6\n      0x04\n      dup1\n      calldatasize\n      sub\n      dup2\n      add\n      swap1\n      tag_7\n      swap2\n      swap1\n      tag_8\n      jump\t// in\n    tag_7:\n      tag_9\n      jump\t// in\n    tag_6:\n      stop\n        /* \"HealthContract.sol\":475:525  mapping(address => Record[]) public patientRecords */\n    tag_4:\n      tag_10\n      0x04\n      dup1\n      calldatasize\n      sub\n      dup2\n      add\n      swap1\n      tag_11\n      swap2\n      swap1\n      tag_12\n      jump\t// in\n    tag_11:\n      tag_13\n      jump\t// in\n    tag_10:\n      mload(0x40)\n      tag_14\n      swap5\n      swap4\n      swap3\n      swap2\n      swap1\n      tag_15\n      jump\t// in\n    tag_14:\n      mload(0x40)\n      dup1\n      swap2\n      sub\n      swap1\n      return\n        /* \"HealthContract.sol\":1391:1515  function getRecords(address _patient) public view returns (Record[] memory) {... */\n    tag_5:\n      tag_16\n      0x04\n      dup1\n      calldatasize\n      sub\n      dup2\n      add\n      swap1\n      tag_17\n      swap2\n      swap1\n      tag_18\n      jump\t// in\n    tag_17:\n      tag_19\n      jump\t// in\n    tag_16:\n      mload(0x40)\n      tag_20\n      swap2\n      swap1\n      tag_21\n      jump\t// in\n    tag_20:\n      mload(0x40)\n      dup1\n      swap2\n      sub\n      swap1\n      return\n        /* \"HealthContract.sol\":768:1340  function addRecord(address _patient, string memory _ipfsHash, bool _isCritical) public {... */\n    tag_9:\n        /* \"HealthContract.sol\":906:929  Record memory newRecord */\n      0x00\n        /* \"HealthContract.sol\":932:1094  Record({... */\n      mload(0x40)\n      dup1\n      0x80\n      add\n      0x40\n      mstore\n      dup1\n        /* \"HealthContract.sol\":963:972  _ipfsHash */\n      dup5\n        /* \"HealthContract.sol\":932:1094  Record({... */\n      dup2\n      mstore\n      0x20\n      add\n        /* \"HealthContract.sol\":997:1012  block.timestamp */\n      timestamp\n        /* \"HealthContract.sol\":932:1094  Record({... */\n      dup2\n      mstore\n      0x20\n      add\n        /* \"HealthContract.sol\":1038:1049  _isCritical */\n      dup4\n        /* \"HealthContract.sol\":932:1094  Record({... */\n      iszero\n      iszero\n      dup2\n      mstore\n      0x20\n      add\n        /* \"HealthContract.sol\":1073:1083  msg.sender */\n      caller\n        /* \"HealthContract.sol\":932:1094  Record({... */\n      0xffffffffffffffffffffffffffffffffffffffff\n      and\n      dup2\n      mstore\n      pop\n        /* \"HealthContract.sol\":906:1094  Record memory newRecord = Record({... */\n      swap1\n      pop\n        /* \"HealthContract.sol\":1153:1167  patientRecords */\n      0x00\n        /* \"HealthContract.sol\":1153:1177  patientRecords[_patient] */\n      dup1\n        /* \"HealthContract.sol\":1168:1176  _patient */\n      dup6\n        /* \"HealthContract.sol\":1153:1177  patientRecords[_patient] */\n      0xffffffffffffffffffffffffffffffffffffffff\n      and\n      0xffffffffffffffffffffffffffffffffffffffff\n      and\n      dup2\n      mstore\n      0x20\n      add\n      swap1\n      dup2\n      mstore\n      0x20\n      add\n      0x00\n      keccak256\n        /* \"HealthContract.sol\":1183:1192  newRecord */\n      dup2\n        /* \"HealthContract.sol\":1153:1193  patientRecords[_patient].push(newRecord) */\n      swap1\n      dup1\n      0x01\n      dup2\n      sload\n      add\n      dup1\n      dup3\n      sstore\n      dup1\n      swap2\n      pop\n      pop\n      0x01\n      swap1\n      sub\n      swap1\n      0x00\n      mstore\n      keccak256(0x00, 0x20)\n      swap1\n      0x03\n      mul\n      add\n      0x00\n      swap1\n      swap2\n      swap1\n      swap2\n      swap1\n      swap2\n      pop\n      0x00\n      dup3\n      add\n      mload\n      dup2\n      0x00\n      add\n      swap1\n      dup2\n      tag_24\n      swap2\n      swap1\n      tag_25\n      jump\t// in\n    tag_24:\n      pop\n      0x20\n      dup3\n      add\n      mload\n      dup2\n      0x01\n      add\n      sstore\n      0x40\n      dup3\n      add\n      mload\n      dup2\n      0x02\n      add\n      exp(0x0100, 0x00)\n      dup2\n      sload\n      dup2\n      0xff\n      mul\n      not\n      and\n      swap1\n      dup4\n      iszero\n      iszero\n      mul\n      or\n      swap1\n      sstore\n      pop\n      0x60\n      dup3\n      add\n      mload\n      dup2\n      0x02\n      add\n      exp(0x0100, 0x01)\n      dup2\n      sload\n      dup2\n      0xffffffffffffffffffffffffffffffffffffffff\n      mul\n      not\n      and\n      swap1\n      dup4\n      0xffffffffffffffffffffffffffffffffffffffff\n      and\n      mul\n      or\n      swap1\n      sstore\n      pop\n      pop\n      pop\n        /* \"HealthContract.sol\":1283:1291  _patient */\n      dup4\n        /* \"HealthContract.sol\":1271:1333  RecordAdded(_patient, _ipfsHash, _isCritical, block.timestamp) */\n      0xffffffffffffffffffffffffffffffffffffffff\n      and\n      0xebf8dbe094a4be25a952cf77bc8e0c3fd015174225bd26f66d60eca4def5afab\n        /* \"HealthContract.sol\":1293:1302  _ipfsHash */\n      dup5\n        /* \"HealthContract.sol\":1304:1315  _isCritical */\n      dup5\n        /* \"HealthContract.sol\":1317:1332  block.timestamp */\n      timestamp\n        /* \"HealthContract.sol\":1271:1333  RecordAdded(_patient, _ipfsHash, _isCritical, block.timestamp) */\n      mload(0x40)\n      tag_26\n      swap4\n      swap3\n      swap2\n      swap1\n      tag_27\n      jump\t// in\n    tag_26:\n      mload(0x40)\n      dup1\n      swap2\n      sub\n      swap1\n      log2\n        /* \"HealthContract.sol\":855:1340  {... */\n      pop\n        /* \"HealthContract.sol\":768:1340  function addRecord(address _patient, string memory _ipfsHash, bool _isCritical) public {... */\n      pop\n      pop\n      pop\n      jump\t// out\n        /* \"HealthContract.sol\":475:525  mapping(address => Record[]) public patientRecords */\n    tag_13:\n      mstore(0x20, 0x00)\n      dup2\n      0x00\n      mstore\n      keccak256(0x00, 0x40)\n      dup2\n      dup2\n      sload\n      dup2\n      lt\n      tag_28\n      jumpi\n      0x00\n      dup1\n      revert\n    tag_28:\n      swap1\n      0x00\n      mstore\n      keccak256(0x00, 0x20)\n      swap1\n      0x03\n      mul\n      add\n      0x00\n      swap2\n      pop\n      swap2\n      pop\n      pop\n      dup1\n      0x00\n      add\n      dup1\n      sload\n      tag_30\n      swap1\n      tag_31\n      jump\t// in\n    tag_30:\n      dup1\n      0x1f\n      add\n      0x20\n      dup1\n      swap2\n      div\n      mul\n      0x20\n      add\n      mload(0x40)\n      swap1\n      dup2\n      add\n      0x40\n      mstore\n      dup1\n      swap3\n      swap2\n      swap1\n      dup2\n      dup2\n      mstore\n      0x20\n      add\n      dup3\n      dup1\n      sload\n      tag_32\n      swap1\n      tag_31\n      jump\t// in\n    tag_32:\n      dup1\n      iszero\n      tag_33\n      jumpi\n      dup1\n      0x1f\n      lt\n      tag_34\n      jumpi\n      0x0100\n      dup1\n      dup4\n      sload\n      div\n      mul\n      dup4\n      mstore\n      swap2\n      0x20\n      add\n      swap2\n      jump(tag_33)\n    tag_34:\n      dup3\n      add\n      swap2\n      swap1\n      0x00\n      mstore\n      keccak256(0x00, 0x20)\n      swap1\n    tag_35:\n      dup2\n      sload\n      dup2\n      mstore\n      swap1\n      0x01\n      add\n      swap1\n      0x20\n      add\n      dup1\n      dup4\n      gt\n      tag_35\n      jumpi\n      dup3\n      swap1\n      sub\n      0x1f\n      and\n      dup3\n      add\n      swap2\n    tag_33:\n      pop\n      pop\n      pop\n      pop\n      pop\n      swap1\n      dup1\n      0x01\n      add\n      sload\n      swap1\n      dup1\n      0x02\n      add\n      0x00\n      swap1\n      sload\n      swap1\n      0x0100\n      exp\n      swap1\n      div\n      0xff\n      and\n      swap1\n      dup1\n      0x02\n      add\n      0x01\n      swap1\n      sload\n      swap1\n      0x0100\n      exp\n      swap1\n      div\n      0xffffffffffffffffffffffffffffffffffffffff\n      and\n      swap1\n      pop\n      dup5\n      jump\t// out\n        /* \"HealthContract.sol\":1391:1515  function getRecords(address _patient) public view returns (Record[] memory) {... */\n    tag_19:\n        /* \"HealthContract.sol\":1450:1465  Record[] memory */\n      0x60\n        /* \"HealthContract.sol\":1484:1498  patientRecords */\n      0x00\n        /* \"HealthContract.sol\":1484:1508  patientRecords[_patient] */\n      dup1\n        /* \"HealthContract.sol\":1499:1507  _patient */\n      dup4\n        /* \"HealthContract.sol\":1484:1508  patientRecords[_patient] */\n      0xffffffffffffffffffffffffffffffffffffffff\n      and\n      0xffffffffffffffffffffffffffffffffffffffff\n      and\n      dup2\n      mstore\n      0x20\n      add\n      swap1\n      dup2\n      mstore\n      0x20\n      add\n      0x00\n      keccak256\n        /* \"HealthContract.sol\":1477:1508  return patientRecords[_patient] */\n      dup1\n      sload\n      dup1\n      0x20\n      mul\n      0x20\n      add\n      mload(0x40)\n      swap1\n      dup2\n      add\n      0x40\n      mstore\n      dup1\n      swap3\n      swap2\n      swap1\n      dup2\n      dup2\n      mstore\n      0x20\n      add\n      0x00\n      swap1\n    tag_37:\n      dup3\n      dup3\n      lt\n      iszero\n      tag_38\n      jumpi\n      dup4\n      dup3\n      swap1\n      0x00\n      mstore\n      keccak256(0x00, 0x20)\n      swap1\n      0x03\n      mul\n      add\n      mload(0x40)\n      dup1\n      0x80\n      add\n      0x40\n      mstore\n      swap1\n      dup2\n      0x00\n      dup3\n      add\n      dup1\n      sload\n      tag_40\n      swap1\n      tag_31\n      jump\t// in\n    tag_40:\n      dup1\n      0x1f\n      add\n      0x20\n      dup1\n      swap2\n      div\n      mul\n      0x20\n      add\n      mload(0x40)\n      swap1\n      dup2\n      add\n      0x40\n      mstore\n      dup1\n      swap3\n      swap2\n      swap1\n      dup2\n      dup2\n      mstore\n      0x20\n      add\n      dup3\n      dup1\n      sload\n      tag_41\n      swap1\n      tag_31\n      jump\t// in\n    tag_41:\n      dup1\n      iszero\n      tag_42\n      jumpi\n      dup1\n      0x1f\n      lt\n      tag_43\n      jumpi\n      0x0100\n      dup1\n      dup4\n      sload\n      div\n      mul\n      dup4\n      mstore\n      swap2\n      0x20\n      add\n      swap2\n      jump(tag_42)\n    tag_43:\n      dup3\n      add\n      swap2\n      swap1\n      0x00\n      mstore\n      keccak256(0x00, 0x20)\n      swap1\n    tag_44:\n      dup2\n      sload\n      dup2\n      mstore\n      swap1\n      0x01\n      add\n      swap1\n      0x20\n      add\n      dup1\n      dup4\n      gt\n      tag_44\n      jumpi\n      dup3\n      swap1\n      sub\n      0x1f\n      and\n      dup3\n      add\n      swap2\n    tag_42:\n      pop\n      pop\n      pop\n      pop\n      pop\n      dup2\n      mstore\n      0x20\n      add\n      0x01\n      dup3\n      add\n      sload\n      dup2\n      mstore\n      0x20\n      add\n      0x02\n      dup3\n      add\n      0x00\n      swap1\n      sload\n      swap1\n      0x0100\n      exp\n      swap1\n      div\n      0xff\n      and\n      iszero\n      iszero\n      iszero\n      iszero\n      dup2\n      mstore\n      0x20\n      add\n      0x02\n      dup3\n      add\n      0x01\n      swap1\n      sload\n      swap1\n      0x0100\n      exp\n      swap1\n      div\n      0xffffffffffffffffffffffffffffffffffffffff\n      and\n      0xffffffffffffffffffffffffffffffffffffffff\n      and\n      0xffffffffffffffffffffffffffffffffffffffff\n      and\n      dup2\n      mstore\n      pop\n      pop\n      dup2\n      mstore\n      0x20\n      add\n      swap1\n      0x01\n      add\n      swap1\n      jump(tag_37)\n    tag_38:\n      pop\n      pop\n      pop\n      pop\n      swap1\n      pop\n        /* \"HealthContract.sol\":1391:1515  function getRecords(address _patient) public view returns (Record[] memory) {... */\n      swap2\n      swap1\n      pop\n      jump\t// out\n        /* \"#utility.yul\":7:82   */\n    tag_45:\n        /* \"#utility.yul\":40:46   */\n      0x00\n        /* \"#utility.yul\":73:75   */\n      0x40\n        /* \"#utility.yul\":67:76   */\n      mload\n        /* \"#utility.yul\":57:76   */\n      swap1\n      pop\n        /* \"#utility.yul\":7:82   */\n      swap1\n      jump\t// out\n        /* \"#utility.yul\":88:205   */\n    tag_46:\n        /* \"#utility.yul\":197:198   */\n      0x00\n        /* \"#utility.yul\":194:195   */\n      dup1\n        /* \"#utility.yul\":187:199   */\n      revert\n        /* \"#utility.yul\":211:328   */\n    tag_47:\n        /* \"#utility.yul\":320:321   */\n      0x00\n        /* \"#utility.yul\":317:318   */\n      dup1\n        /* \"#utility.yul\":310:322   */\n      revert\n        /* \"#utility.yul\":334:460   */\n    tag_48:\n        /* \"#utility.yul\":371:378   */\n      0x00\n        /* \"#utility.yul\":411:453   */\n      0xffffffffffffffffffffffffffffffffffffffff\n        /* \"#utility.yul\":404:409   */\n      dup3\n        /* \"#utility.yul\":400:454   */\n      and\n        /* \"#utility.yul\":389:454   */\n      swap1\n      pop\n        /* \"#utility.yul\":334:460   */\n      swap2\n      swap1\n      pop\n      jump\t// out\n        /* \"#utility.yul\":466:562   */\n    tag_49:\n        /* \"#utility.yul\":503:510   */\n      0x00\n        /* \"#utility.yul\":532:556   */\n      tag_109\n        /* \"#utility.yul\":550:555   */\n      dup3\n        /* \"#utility.yul\":532:556   */\n      tag_48\n      jump\t// in\n    tag_109:\n        /* \"#utility.yul\":521:556   */\n      swap1\n      pop\n        /* \"#utility.yul\":466:562   */\n      swap2\n      swap1\n      pop\n      jump\t// out\n        /* \"#utility.yul\":568:690   */\n    tag_50:\n        /* \"#utility.yul\":641:665   */\n      tag_111\n        /* \"#utility.yul\":659:664   */\n      dup2\n        /* \"#utility.yul\":641:665   */\n      tag_49\n      jump\t// in\n    tag_111:\n        /* \"#utility.yul\":634:639   */\n      dup2\n        /* \"#utility.yul\":631:666   */\n      eq\n        /* \"#utility.yul\":621:684   */\n      tag_112\n      jumpi\n        /* \"#utility.yul\":680:681   */\n      0x00\n        /* \"#utility.yul\":677:678   */\n      dup1\n        /* \"#utility.yul\":670:682   */\n      revert\n        /* \"#utility.yul\":621:684   */\n    tag_112:\n        /* \"#utility.yul\":568:690   */\n      pop\n      jump\t// out\n        /* \"#utility.yul\":696:835   */\n    tag_51:\n        /* \"#utility.yul\":742:747   */\n      0x00\n        /* \"#utility.yul\":780:786   */\n      dup2\n        /* \"#utility.yul\":767:787   */\n      calldataload\n        /* \"#utility.yul\":758:787   */\n      swap1\n      pop\n        /* \"#utility.yul\":796:829   */\n      tag_114\n        /* \"#utility.yul\":823:828   */\n      dup2\n        /* \"#utility.yul\":796:829   */\n      tag_50\n      jump\t// in\n    tag_114:\n        /* \"#utility.yul\":696:835   */\n      swap3\n      swap2\n      pop\n      pop\n      jump\t// out\n        /* \"#utility.yul\":841:958   */\n    tag_52:\n        /* \"#utility.yul\":950:951   */\n      0x00\n        /* \"#utility.yul\":947:948   */\n      dup1\n        /* \"#utility.yul\":940:952   */\n      revert\n        /* \"#utility.yul\":964:1081   */\n    tag_53:\n        /* \"#utility.yul\":1073:1074   */\n      0x00\n        /* \"#utility.yul\":1070:1071   */\n      dup1\n        /* \"#utility.yul\":1063:1075   */\n      revert\n        /* \"#utility.yul\":1087:1189   */\n    tag_54:\n        /* \"#utility.yul\":1128:1134   */\n      0x00\n        /* \"#utility.yul\":1179:1181   */\n      0x1f\n        /* \"#utility.yul\":1175:1182   */\n      not\n        /* \"#utility.yul\":1170:1172   */\n      0x1f\n        /* \"#utility.yul\":1163:1168   */\n      dup4\n        /* \"#utility.yul\":1159:1173   */\n      add\n        /* \"#utility.yul\":1155:1183   */\n      and\n        /* \"#utility.yul\":1145:1183   */\n      swap1\n      pop\n        /* \"#utility.yul\":1087:1189   */\n      swap2\n      swap1\n      pop\n      jump\t// out\n        /* \"#utility.yul\":1195:1375   */\n    tag_55:\n        /* \"#utility.yul\":1243:1320   */\n      0x4e487b7100000000000000000000000000000000000000000000000000000000\n        /* \"#utility.yul\":1240:1241   */\n      0x00\n        /* \"#utility.yul\":1233:1321   */\n      mstore\n        /* \"#utility.yul\":1340:1344   */\n      0x41\n        /* \"#utility.yul\":1337:1338   */\n      0x04\n        /* \"#utility.yul\":1330:1345   */\n      mstore\n        /* \"#utility.yul\":1364:1368   */\n      0x24\n        /* \"#utility.yul\":1361:1362   */\n      0x00\n        /* \"#utility.yul\":1354:1369   */\n      revert\n        /* \"#utility.yul\":1381:1662   */\n    tag_56:\n        /* \"#utility.yul\":1464:1491   */\n      tag_120\n        /* \"#utility.yul\":1486:1490   */\n      dup3\n        /* \"#utility.yul\":1464:1491   */\n      tag_54\n      jump\t// in\n    tag_120:\n        /* \"#utility.yul\":1456:1462   */\n      dup2\n        /* \"#utility.yul\":1452:1492   */\n      add\n        /* \"#utility.yul\":1594:1600   */\n      dup2\n        /* \"#utility.yul\":1582:1592   */\n      dup2\n        /* \"#utility.yul\":1579:1601   */\n      lt\n        /* \"#utility.yul\":1558:1576   */\n      0xffffffffffffffff\n        /* \"#utility.yul\":1546:1556   */\n      dup3\n        /* \"#utility.yul\":1543:1577   */\n      gt\n        /* \"#utility.yul\":1540:1602   */\n      or\n        /* \"#utility.yul\":1537:1625   */\n      iszero\n      tag_121\n      jumpi\n        /* \"#utility.yul\":1605:1623   */\n      tag_122\n      tag_55\n      jump\t// in\n    tag_122:\n        /* \"#utility.yul\":1537:1625   */\n    tag_121:\n        /* \"#utility.yul\":1645:1655   */\n      dup1\n        /* \"#utility.yul\":1641:1643   */\n      0x40\n        /* \"#utility.yul\":1634:1656   */\n      mstore\n        /* \"#utility.yul\":1424:1662   */\n      pop\n        /* \"#utility.yul\":1381:1662   */\n      pop\n      pop\n      jump\t// out\n        /* \"#utility.yul\":1668:1797   */\n    tag_57:\n        /* \"#utility.yul\":1702:1708   */\n      0x00\n        /* \"#utility.yul\":1729:1749   */\n      tag_124\n      tag_45\n      jump\t// in\n    tag_124:\n        /* \"#utility.yul\":1719:1749   */\n      swap1\n      pop\n        /* \"#utility.yul\":1758:1791   */\n      tag_125\n        /* \"#utility.yul\":1786:1790   */\n      dup3\n        /* \"#utility.yul\":1778:1784   */\n      dup3\n        /* \"#utility.yul\":1758:1791   */\n      tag_56\n      jump\t// in\n    tag_125:\n        /* \"#utility.yul\":1668:1797   */\n      swap2\n      swap1\n      pop\n      jump\t// out\n        /* \"#utility.yul\":1803:2111   */\n    tag_58:\n        /* \"#utility.yul\":1865:1869   */\n      0x00\n        /* \"#utility.yul\":1955:1973   */\n      0xffffffffffffffff\n        /* \"#utility.yul\":1947:1953   */\n      dup3\n        /* \"#utility.yul\":1944:1974   */\n      gt\n        /* \"#utility.yul\":1941:1997   */\n      iszero\n      tag_127\n      jumpi\n        /* \"#utility.yul\":1977:1995   */\n      tag_128\n      tag_55\n      jump\t// in\n    tag_128:\n        /* \"#utility.yul\":1941:1997   */\n    tag_127:\n        /* \"#utility.yul\":2015:2044   */\n      tag_129\n        /* \"#utility.yul\":2037:2043   */\n      dup3\n        /* \"#utility.yul\":2015:2044   */\n      tag_54\n      jump\t// in\n    tag_129:\n        /* \"#utility.yul\":2007:2044   */\n      swap1\n      pop\n        /* \"#utility.yul\":2099:2103   */\n      0x20\n        /* \"#utility.yul\":2093:2097   */\n      dup2\n        /* \"#utility.yul\":2089:2104   */\n      add\n        /* \"#utility.yul\":2081:2104   */\n      swap1\n      pop\n        /* \"#utility.yul\":1803:2111   */\n      swap2\n      swap1\n      pop\n      jump\t// out\n        /* \"#utility.yul\":2117:2263   */\n    tag_59:\n        /* \"#utility.yul\":2214:2220   */\n      dup3\n        /* \"#utility.yul\":2209:2212   */\n      dup2\n        /* \"#utility.yul\":2204:2207   */\n      dup4\n        /* \"#utility.yul\":2191:2221   */\n      calldatacopy\n        /* \"#utility.yul\":2255:2256   */\n      0x00\n        /* \"#utility.yul\":2246:2252   */\n      dup4\n        /* \"#utility.yul\":2241:2244   */\n      dup4\n        /* \"#utility.yul\":2237:2253   */\n      add\n        /* \"#utility.yul\":2230:2257   */\n      mstore\n        /* \"#utility.yul\":2117:2263   */\n      pop\n      pop\n      pop\n      jump\t// out\n        /* \"#utility.yul\":2269:2694   */\n    tag_60:\n        /* \"#utility.yul\":2347:2352   */\n      0x00\n        /* \"#utility.yul\":2372:2438   */\n      tag_132\n        /* \"#utility.yul\":2388:2437   */\n      tag_133\n        /* \"#utility.yul\":2430:2436   */\n      dup5\n        /* \"#utility.yul\":2388:2437   */\n      tag_58\n      jump\t// in\n    tag_133:\n        /* \"#utility.yul\":2372:2438   */\n      tag_57\n      jump\t// in\n    tag_132:\n        /* \"#utility.yul\":2363:2438   */\n      swap1\n      pop\n        /* \"#utility.yul\":2461:2467   */\n      dup3\n        /* \"#utility.yul\":2454:2459   */\n      dup2\n        /* \"#utility.yul\":2447:2468   */\n      mstore\n        /* \"#utility.yul\":2499:2503   */\n      0x20\n        /* \"#utility.yul\":2492:2497   */\n      dup2\n        /* \"#utility.yul\":2488:2504   */\n      add\n        /* \"#utility.yul\":2537:2540   */\n      dup5\n        /* \"#utility.yul\":2528:2534   */\n      dup5\n        /* \"#utility.yul\":2523:2526   */\n      dup5\n        /* \"#utility.yul\":2519:2535   */\n      add\n        /* \"#utility.yul\":2516:2541   */\n      gt\n        /* \"#utility.yul\":2513:2625   */\n      iszero\n      tag_134\n      jumpi\n        /* \"#utility.yul\":2544:2623   */\n      tag_135\n      tag_53\n      jump\t// in\n    tag_135:\n        /* \"#utility.yul\":2513:2625   */\n    tag_134:\n        /* \"#utility.yul\":2634:2688   */\n      tag_136\n        /* \"#utility.yul\":2681:2687   */\n      dup5\n        /* \"#utility.yul\":2676:2679   */\n      dup3\n        /* \"#utility.yul\":2671:2674   */\n      dup6\n        /* \"#utility.yul\":2634:2688   */\n      tag_59\n      jump\t// in\n    tag_136:\n        /* \"#utility.yul\":2353:2694   */\n      pop\n        /* \"#utility.yul\":2269:2694   */\n      swap4\n      swap3\n      pop\n      pop\n      pop\n      jump\t// out\n        /* \"#utility.yul\":2714:3054   */\n    tag_61:\n        /* \"#utility.yul\":2770:2775   */\n      0x00\n        /* \"#utility.yul\":2819:2822   */\n      dup3\n        /* \"#utility.yul\":2812:2816   */\n      0x1f\n        /* \"#utility.yul\":2804:2810   */\n      dup4\n        /* \"#utility.yul\":2800:2817   */\n      add\n        /* \"#utility.yul\":2796:2823   */\n      slt\n        /* \"#utility.yul\":2786:2908   */\n      tag_138\n      jumpi\n        /* \"#utility.yul\":2827:2906   */\n      tag_139\n      tag_52\n      jump\t// in\n    tag_139:\n        /* \"#utility.yul\":2786:2908   */\n    tag_138:\n        /* \"#utility.yul\":2944:2950   */\n      dup2\n        /* \"#utility.yul\":2931:2951   */\n      calldataload\n        /* \"#utility.yul\":2969:3048   */\n      tag_140\n        /* \"#utility.yul\":3044:3047   */\n      dup5\n        /* \"#utility.yul\":3036:3042   */\n      dup3\n        /* \"#utility.yul\":3029:3033   */\n      0x20\n        /* \"#utility.yul\":3021:3027   */\n      dup7\n        /* \"#utility.yul\":3017:3034   */\n      add\n        /* \"#utility.yul\":2969:3048   */\n      tag_60\n      jump\t// in\n    tag_140:\n        /* \"#utility.yul\":2960:3048   */\n      swap2\n      pop\n        /* \"#utility.yul\":2776:3054   */\n      pop\n        /* \"#utility.yul\":2714:3054   */\n      swap3\n      swap2\n      pop\n      pop\n      jump\t// out\n        /* \"#utility.yul\":3060:3150   */\n    tag_62:\n        /* \"#utility.yul\":3094:3101   */\n      0x00\n        /* \"#utility.yul\":3137:3142   */\n      dup2\n        /* \"#utility.yul\":3130:3143   */\n      iszero\n        /* \"#utility.yul\":3123:3144   */\n      iszero\n        /* \"#utility.yul\":3112:3144   */\n      swap1\n      pop\n        /* \"#utility.yul\":3060:3150   */\n      swap2\n      swap1\n      pop\n      jump\t// out\n        /* \"#utility.yul\":3156:3272   */\n    tag_63:\n        /* \"#utility.yul\":3226:3247   */\n      tag_143\n        /* \"#utility.yul\":3241:3246   */\n      dup2\n        /* \"#utility.yul\":3226:3247   */\n      tag_62\n      jump\t// in\n    tag_143:\n        /* \"#utility.yul\":3219:3224   */\n      dup2\n        /* \"#utility.yul\":3216:3248   */\n      eq\n        /* \"#utility.yul\":3206:3266   */\n      tag_144\n      jumpi\n        /* \"#utility.yul\":3262:3263   */\n      0x00\n        /* \"#utility.yul\":3259:3260   */\n      dup1\n        /* \"#utility.yul\":3252:3264   */\n      revert\n        /* \"#utility.yul\":3206:3266   */\n    tag_144:\n        /* \"#utility.yul\":3156:3272   */\n      pop\n      jump\t// out\n        /* \"#utility.yul\":3278:3411   */\n    tag_64:\n        /* \"#utility.yul\":3321:3326   */\n      0x00\n        /* \"#utility.yul\":3359:3365   */\n      dup2\n        /* \"#utility.yul\":3346:3366   */\n      calldataload\n        /* \"#utility.yul\":3337:3366   */\n      swap1\n      pop\n        /* \"#utility.yul\":3375:3405   */\n      tag_146\n        /* \"#utility.yul\":3399:3404   */\n      dup2\n        /* \"#utility.yul\":3375:3405   */\n      tag_63\n      jump\t// in\n    tag_146:\n        /* \"#utility.yul\":3278:3411   */\n      swap3\n      swap2\n      pop\n      pop\n      jump\t// out\n        /* \"#utility.yul\":3417:4210   */\n    tag_8:\n        /* \"#utility.yul\":3501:3507   */\n      0x00\n        /* \"#utility.yul\":3509:3515   */\n      dup1\n        /* \"#utility.yul\":3517:3523   */\n      0x00\n        /* \"#utility.yul\":3566:3568   */\n      0x60\n        /* \"#utility.yul\":3554:3563   */\n      dup5\n        /* \"#utility.yul\":3545:3552   */\n      dup7\n        /* \"#utility.yul\":3541:3564   */\n      sub\n        /* \"#utility.yul\":3537:3569   */\n      slt\n        /* \"#utility.yul\":3534:3653   */\n      iszero\n      tag_148\n      jumpi\n        /* \"#utility.yul\":3572:3651   */\n      tag_149\n      tag_46\n      jump\t// in\n    tag_149:\n        /* \"#utility.yul\":3534:3653   */\n    tag_148:\n        /* \"#utility.yul\":3692:3693   */\n      0x00\n        /* \"#utility.yul\":3717:3770   */\n      tag_150\n        /* \"#utility.yul\":3762:3769   */\n      dup7\n        /* \"#utility.yul\":3753:3759   */\n      dup3\n        /* \"#utility.yul\":3742:3751   */\n      dup8\n        /* \"#utility.yul\":3738:3760   */\n      add\n        /* \"#utility.yul\":3717:3770   */\n      tag_51\n      jump\t// in\n    tag_150:\n        /* \"#utility.yul\":3707:3770   */\n      swap4\n      pop\n        /* \"#utility.yul\":3663:3780   */\n      pop\n        /* \"#utility.yul\":3847:3849   */\n      0x20\n        /* \"#utility.yul\":3836:3845   */\n      dup5\n        /* \"#utility.yul\":3832:3850   */\n      add\n        /* \"#utility.yul\":3819:3851   */\n      calldataload\n        /* \"#utility.yul\":3878:3896   */\n      0xffffffffffffffff\n        /* \"#utility.yul\":3870:3876   */\n      dup2\n        /* \"#utility.yul\":3867:3897   */\n      gt\n        /* \"#utility.yul\":3864:3981   */\n      iszero\n      tag_151\n      jumpi\n        /* \"#utility.yul\":3900:3979   */\n      tag_152\n      tag_47\n      jump\t// in\n    tag_152:\n        /* \"#utility.yul\":3864:3981   */\n    tag_151:\n        /* \"#utility.yul\":4005:4068   */\n      tag_153\n        /* \"#utility.yul\":4060:4067   */\n      dup7\n        /* \"#utility.yul\":4051:4057   */\n      dup3\n        /* \"#utility.yul\":4040:4049   */\n      dup8\n        /* \"#utility.yul\":4036:4058   */\n      add\n        /* \"#utility.yul\":4005:4068   */\n      tag_61\n      jump\t// in\n    tag_153:\n        /* \"#utility.yul\":3995:4068   */\n      swap3\n      pop\n        /* \"#utility.yul\":3790:4078   */\n      pop\n        /* \"#utility.yul\":4117:4119   */\n      0x40\n        /* \"#utility.yul\":4143:4193   */\n      tag_154\n        /* \"#utility.yul\":4185:4192   */\n      dup7\n        /* \"#utility.yul\":4176:4182   */\n      dup3\n        /* \"#utility.yul\":4165:4174   */\n      dup8\n        /* \"#utility.yul\":4161:4183   */\n      add\n        /* \"#utility.yul\":4143:4193   */\n      tag_64\n      jump\t// in\n    tag_154:\n        /* \"#utility.yul\":4133:4193   */\n      swap2\n      pop\n        /* \"#utility.yul\":4088:4203   */\n      pop\n        /* \"#utility.yul\":3417:4210   */\n      swap3\n      pop\n      swap3\n      pop\n      swap3\n      jump\t// out\n        /* \"#utility.yul\":4216:4293   */\n    tag_65:\n        /* \"#utility.yul\":4253:4260   */\n      0x00\n        /* \"#utility.yul\":4282:4287   */\n      dup2\n        /* \"#utility.yul\":4271:4287   */\n      swap1\n      pop\n        /* \"#utility.yul\":4216:4293   */\n      swap2\n      swap1\n      pop\n      jump\t// out\n        /* \"#utility.yul\":4299:4421   */\n    tag_66:\n        /* \"#utility.yul\":4372:4396   */\n      tag_157\n        /* \"#utility.yul\":4390:4395   */\n      dup2\n        /* \"#utility.yul\":4372:4396   */\n      tag_65\n      jump\t// in\n    tag_157:\n        /* \"#utility.yul\":4365:4370   */\n      dup2\n        /* \"#utility.yul\":4362:4397   */\n      eq\n        /* \"#utility.yul\":4352:4415   */\n      tag_158\n      jumpi\n        /* \"#utility.yul\":4411:4412   */\n      0x00\n        /* \"#utility.yul\":4408:4409   */\n      dup1\n        /* \"#utility.yul\":4401:4413   */\n      revert\n        /* \"#utility.yul\":4352:4415   */\n    tag_158:\n        /* \"#utility.yul\":4299:4421   */\n      pop\n      jump\t// out\n        /* \"#utility.yul\":4427:4566   */\n    tag_67:\n        /* \"#utility.yul\":4473:4478   */\n      0x00\n        /* \"#utility.yul\":4511:4517   */\n      dup2\n        /* \"#utility.yul\":4498:4518   */\n      calldataload\n        /* \"#utility.yul\":4489:4518   */\n      swap1\n      pop\n        /* \"#utility.yul\":4527:4560   */\n      tag_160\n        /* \"#utility.yul\":4554:4559   */\n      dup2\n        /* \"#utility.yul\":4527:4560   */\n      tag_66\n      jump\t// in\n    tag_160:\n        /* \"#utility.yul\":4427:4566   */\n      swap3\n      swap2\n      pop\n      pop\n      jump\t// out\n        /* \"#utility.yul\":4572:5046   */\n    tag_12:\n        /* \"#utility.yul\":4640:4646   */\n      0x00\n        /* \"#utility.yul\":4648:4654   */\n      dup1\n        /* \"#utility.yul\":4697:4699   */\n      0x40\n        /* \"#utility.yul\":4685:4694   */\n      dup4\n        /* \"#utility.yul\":4676:4683   */\n      dup6\n        /* \"#utility.yul\":4672:4695   */\n      sub\n        /* \"#utility.yul\":4668:4700   */\n      slt\n        /* \"#utility.yul\":4665:4784   */\n      iszero\n      tag_162\n      jumpi\n        /* \"#utility.yul\":4703:4782   */\n      tag_163\n      tag_46\n      jump\t// in\n    tag_163:\n        /* \"#utility.yul\":4665:4784   */\n    tag_162:\n        /* \"#utility.yul\":4823:4824   */\n      0x00\n        /* \"#utility.yul\":4848:4901   */\n      tag_164\n        /* \"#utility.yul\":4893:4900   */\n      dup6\n        /* \"#utility.yul\":4884:4890   */\n      dup3\n        /* \"#utility.yul\":4873:4882   */\n      dup7\n        /* \"#utility.yul\":4869:4891   */\n      add\n        /* \"#utility.yul\":4848:4901   */\n      tag_51\n      jump\t// in\n    tag_164:\n        /* \"#utility.yul\":4838:4901   */\n      swap3\n      pop\n        /* \"#utility.yul\":4794:4911   */\n      pop\n        /* \"#utility.yul\":4950:4952   */\n      0x20\n        /* \"#utility.yul\":4976:5029   */\n      tag_165\n        /* \"#utility.yul\":5021:5028   */\n      dup6\n        /* \"#utility.yul\":5012:5018   */\n      dup3\n        /* \"#utility.yul\":5001:5010   */\n      dup7\n        /* \"#utility.yul\":4997:5019   */\n      add\n        /* \"#utility.yul\":4976:5029   */\n      tag_67\n      jump\t// in\n    tag_165:\n        /* \"#utility.yul\":4966:5029   */\n      swap2\n      pop\n        /* \"#utility.yul\":4921:5039   */\n      pop\n        /* \"#utility.yul\":4572:5046   */\n      swap3\n      pop\n      swap3\n      swap1\n      pop\n      jump\t// out\n        /* \"#utility.yul\":5052:5151   */\n    tag_68:\n        /* \"#utility.yul\":5104:5110   */\n      0x00\n        /* \"#utility.yul\":5138:5143   */\n      dup2\n        /* \"#utility.yul\":5132:5144   */\n      mload\n        /* \"#utility.yul\":5122:5144   */\n      swap1\n      pop\n        /* \"#utility.yul\":5052:5151   */\n      swap2\n      swap1\n      pop\n      jump\t// out\n        /* \"#utility.yul\":5157:5326   */\n    tag_69:\n        /* \"#utility.yul\":5241:5252   */\n      0x00\n        /* \"#utility.yul\":5275:5281   */\n      dup3\n        /* \"#utility.yul\":5270:5273   */\n      dup3\n        /* \"#utility.yul\":5263:5282   */\n      mstore\n        /* \"#utility.yul\":5315:5319   */\n      0x20\n        /* \"#utility.yul\":5310:5313   */\n      dup3\n        /* \"#utility.yul\":5306:5320   */\n      add\n        /* \"#utility.yul\":5291:5320   */\n      swap1\n      pop\n        /* \"#utility.yul\":5157:5326   */\n      swap3\n      swap2\n      pop\n      pop\n      jump\t// out\n        /* \"#utility.yul\":5332:5578   */\n    tag_70:\n        /* \"#utility.yul\":5413:5414   */\n      0x00\n        /* \"#utility.yul\":5423:5536   */\n    tag_169:\n        /* \"#utility.yul\":5437:5443   */\n      dup4\n        /* \"#utility.yul\":5434:5435   */\n      dup2\n        /* \"#utility.yul\":5431:5444   */\n      lt\n        /* \"#utility.yul\":5423:5536   */\n      iszero\n      tag_171\n      jumpi\n        /* \"#utility.yul\":5522:5523   */\n      dup1\n        /* \"#utility.yul\":5517:5520   */\n      dup3\n        /* \"#utility.yul\":5513:5524   */\n      add\n        /* \"#utility.yul\":5507:5525   */\n      mload\n        /* \"#utility.yul\":5503:5504   */\n      dup2\n        /* \"#utility.yul\":5498:5501   */\n      dup5\n        /* \"#utility.yul\":5494:5505   */\n      add\n        /* \"#utility.yul\":5487:5526   */\n      mstore\n        /* \"#utility.yul\":5459:5461   */\n      0x20\n        /* \"#utility.yul\":5456:5457   */\n      dup2\n        /* \"#utility.yul\":5452:5462   */\n      add\n        /* \"#utility.yul\":5447:5462   */\n      swap1\n      pop\n        /* \"#utility.yul\":5423:5536   */\n      jump(tag_169)\n    tag_171:\n        /* \"#utility.yul\":5570:5571   */\n      0x00\n        /* \"#utility.yul\":5561:5567   */\n      dup5\n        /* \"#utility.yul\":5556:5559   */\n      dup5\n        /* \"#utility.yul\":5552:5568   */\n      add\n        /* \"#utility.yul\":5545:5572   */\n      mstore\n        /* \"#utility.yul\":5394:5578   */\n      pop\n        /* \"#utility.yul\":5332:5578   */\n      pop\n      pop\n      pop\n      jump\t// out\n        /* \"#utility.yul\":5584:5961   */\n    tag_71:\n        /* \"#utility.yul\":5672:5675   */\n      0x00\n        /* \"#utility.yul\":5700:5739   */\n      tag_173\n        /* \"#utility.yul\":5733:5738   */\n      dup3\n        /* \"#utility.yul\":5700:5739   */\n      tag_68\n      jump\t// in\n    tag_173:\n        /* \"#utility.yul\":5755:5826   */\n      tag_174\n        /* \"#utility.yul\":5819:5825   */\n      dup2\n        /* \"#utility.yul\":5814:5817   */\n      dup6\n        /* \"#utility.yul\":5755:5826   */\n      tag_69\n      jump\t// in\n    tag_174:\n        /* \"#utility.yul\":5748:5826   */\n      swap4\n      pop\n        /* \"#utility.yul\":5835:5900   */\n      tag_175\n        /* \"#utility.yul\":5893:5899   */\n      dup2\n        /* \"#utility.yul\":5888:5891   */\n      dup6\n        /* \"#utility.yul\":5881:5885   */\n      0x20\n        /* \"#utility.yul\":5874:5879   */\n      dup7\n        /* \"#utility.yul\":5870:5886   */\n      add\n        /* \"#utility.yul\":5835:5900   */\n      tag_70\n      jump\t// in\n    tag_175:\n        /* \"#utility.yul\":5925:5954   */\n      tag_176\n        /* \"#utility.yul\":5947:5953   */\n      dup2\n        /* \"#utility.yul\":5925:5954   */\n      tag_54\n      jump\t// in\n    tag_176:\n        /* \"#utility.yul\":5920:5923   */\n      dup5\n        /* \"#utility.yul\":5916:5955   */\n      add\n        /* \"#utility.yul\":5909:5955   */\n      swap2\n      pop\n        /* \"#utility.yul\":5676:5961   */\n      pop\n        /* \"#utility.yul\":5584:5961   */\n      swap3\n      swap2\n      pop\n      pop\n      jump\t// out\n        /* \"#utility.yul\":5967:6085   */\n    tag_72:\n        /* \"#utility.yul\":6054:6078   */\n      tag_178\n        /* \"#utility.yul\":6072:6077   */\n      dup2\n        /* \"#utility.yul\":6054:6078   */\n      tag_65\n      jump\t// in\n    tag_178:\n        /* \"#utility.yul\":6049:6052   */\n      dup3\n        /* \"#utility.yul\":6042:6079   */\n      mstore\n        /* \"#utility.yul\":5967:6085   */\n      pop\n      pop\n      jump\t// out\n        /* \"#utility.yul\":6091:6200   */\n    tag_73:\n        /* \"#utility.yul\":6172:6193   */\n      tag_180\n        /* \"#utility.yul\":6187:6192   */\n      dup2\n        /* \"#utility.yul\":6172:6193   */\n      tag_62\n      jump\t// in\n    tag_180:\n        /* \"#utility.yul\":6167:6170   */\n      dup3\n        /* \"#utility.yul\":6160:6194   */\n      mstore\n        /* \"#utility.yul\":6091:6200   */\n      pop\n      pop\n      jump\t// out\n        /* \"#utility.yul\":6206:6324   */\n    tag_74:\n        /* \"#utility.yul\":6293:6317   */\n      tag_182\n        /* \"#utility.yul\":6311:6316   */\n      dup2\n        /* \"#utility.yul\":6293:6317   */\n      tag_49\n      jump\t// in\n    tag_182:\n        /* \"#utility.yul\":6288:6291   */\n      dup3\n        /* \"#utility.yul\":6281:6318   */\n      mstore\n        /* \"#utility.yul\":6206:6324   */\n      pop\n      pop\n      jump\t// out\n        /* \"#utility.yul\":6330:6962   */\n    tag_15:\n        /* \"#utility.yul\":6521:6525   */\n      0x00\n        /* \"#utility.yul\":6559:6562   */\n      0x80\n        /* \"#utility.yul\":6548:6557   */\n      dup3\n        /* \"#utility.yul\":6544:6563   */\n      add\n        /* \"#utility.yul\":6536:6563   */\n      swap1\n      pop\n        /* \"#utility.yul\":6609:6618   */\n      dup2\n        /* \"#utility.yul\":6603:6607   */\n      dup2\n        /* \"#utility.yul\":6599:6619   */\n      sub\n        /* \"#utility.yul\":6595:6596   */\n      0x00\n        /* \"#utility.yul\":6584:6593   */\n      dup4\n        /* \"#utility.yul\":6580:6597   */\n      add\n        /* \"#utility.yul\":6573:6620   */\n      mstore\n        /* \"#utility.yul\":6637:6715   */\n      tag_184\n        /* \"#utility.yul\":6710:6714   */\n      dup2\n        /* \"#utility.yul\":6701:6707   */\n      dup8\n        /* \"#utility.yul\":6637:6715   */\n      tag_71\n      jump\t// in\n    tag_184:\n        /* \"#utility.yul\":6629:6715   */\n      swap1\n      pop\n        /* \"#utility.yul\":6725:6797   */\n      tag_185\n        /* \"#utility.yul\":6793:6795   */\n      0x20\n        /* \"#utility.yul\":6782:6791   */\n      dup4\n        /* \"#utility.yul\":6778:6796   */\n      add\n        /* \"#utility.yul\":6769:6775   */\n      dup7\n        /* \"#utility.yul\":6725:6797   */\n      tag_72\n      jump\t// in\n    tag_185:\n        /* \"#utility.yul\":6807:6873   */\n      tag_186\n        /* \"#utility.yul\":6869:6871   */\n      0x40\n        /* \"#utility.yul\":6858:6867   */\n      dup4\n        /* \"#utility.yul\":6854:6872   */\n      add\n        /* \"#utility.yul\":6845:6851   */\n      dup6\n        /* \"#utility.yul\":6807:6873   */\n      tag_73\n      jump\t// in\n    tag_186:\n        /* \"#utility.yul\":6883:6955   */\n      tag_187\n        /* \"#utility.yul\":6951:6953   */\n      0x60\n        /* \"#utility.yul\":6940:6949   */\n      dup4\n        /* \"#utility.yul\":6936:6954   */\n      add\n        /* \"#utility.yul\":6927:6933   */\n      dup5\n        /* \"#utility.yul\":6883:6955   */\n      tag_74\n      jump\t// in\n    tag_187:\n        /* \"#utility.yul\":6330:6962   */\n      swap6\n      swap5\n      pop\n      pop\n      pop\n      pop\n      pop\n      jump\t// out\n        /* \"#utility.yul\":6968:7297   */\n    tag_18:\n        /* \"#utility.yul\":7027:7033   */\n      0x00\n        /* \"#utility.yul\":7076:7078   */\n      0x20\n        /* \"#utility.yul\":7064:7073   */\n      dup3\n        /* \"#utility.yul\":7055:7062   */\n      dup5\n        /* \"#utility.yul\":7051:7074   */\n      sub\n        /* \"#utility.yul\":7047:7079   */\n      slt\n        /* \"#utility.yul\":7044:7163   */\n      iszero\n      tag_189\n      jumpi\n        /* \"#utility.yul\":7082:7161   */\n      tag_190\n      tag_46\n      jump\t// in\n    tag_190:\n        /* \"#utility.yul\":7044:7163   */\n    tag_189:\n        /* \"#utility.yul\":7202:7203   */\n      0x00\n        /* \"#utility.yul\":7227:7280   */\n      tag_191\n        /* \"#utility.yul\":7272:7279   */\n      dup5\n        /* \"#utility.yul\":7263:7269   */\n      dup3\n        /* \"#utility.yul\":7252:7261   */\n      dup6\n        /* \"#utility.yul\":7248:7270   */\n      add\n        /* \"#utility.yul\":7227:7280   */\n      tag_51\n      jump\t// in\n    tag_191:\n        /* \"#utility.yul\":7217:7280   */\n      swap2\n      pop\n        /* \"#utility.yul\":7173:7290   */\n      pop\n        /* \"#utility.yul\":6968:7297   */\n      swap3\n      swap2\n      pop\n      pop\n      jump\t// out\n        /* \"#utility.yul\":7303:7439   */\n    tag_75:\n        /* \"#utility.yul\":7392:7398   */\n      0x00\n        /* \"#utility.yul\":7426:7431   */\n      dup2\n        /* \"#utility.yul\":7420:7432   */\n      mload\n        /* \"#utility.yul\":7410:7432   */\n      swap1\n      pop\n        /* \"#utility.yul\":7303:7439   */\n      swap2\n      swap1\n      pop\n      jump\t// out\n        /* \"#utility.yul\":7445:7651   */\n    tag_76:\n        /* \"#utility.yul\":7566:7577   */\n      0x00\n        /* \"#utility.yul\":7600:7606   */\n      dup3\n        /* \"#utility.yul\":7595:7598   */\n      dup3\n        /* \"#utility.yul\":7588:7607   */\n      mstore\n        /* \"#utility.yul\":7640:7644   */\n      0x20\n        /* \"#utility.yul\":7635:7638   */\n      dup3\n        /* \"#utility.yul\":7631:7645   */\n      add\n        /* \"#utility.yul\":7616:7645   */\n      swap1\n      pop\n        /* \"#utility.yul\":7445:7651   */\n      swap3\n      swap2\n      pop\n      pop\n      jump\t// out\n        /* \"#utility.yul\":7657:7811   */\n    tag_77:\n        /* \"#utility.yul\":7746:7750   */\n      0x00\n        /* \"#utility.yul\":7769:7772   */\n      dup2\n        /* \"#utility.yul\":7761:7772   */\n      swap1\n      pop\n        /* \"#utility.yul\":7799:7803   */\n      0x20\n        /* \"#utility.yul\":7794:7797   */\n      dup3\n        /* \"#utility.yul\":7790:7804   */\n      add\n        /* \"#utility.yul\":7782:7804   */\n      swap1\n      pop\n        /* \"#utility.yul\":7657:7811   */\n      swap2\n      swap1\n      pop\n      jump\t// out\n        /* \"#utility.yul\":7817:7976   */\n    tag_78:\n        /* \"#utility.yul\":7891:7902   */\n      0x00\n        /* \"#utility.yul\":7925:7931   */\n      dup3\n        /* \"#utility.yul\":7920:7923   */\n      dup3\n        /* \"#utility.yul\":7913:7932   */\n      mstore\n        /* \"#utility.yul\":7965:7969   */\n      0x20\n        /* \"#utility.yul\":7960:7963   */\n      dup3\n        /* \"#utility.yul\":7956:7970   */\n      add\n        /* \"#utility.yul\":7941:7970   */\n      swap1\n      pop\n        /* \"#utility.yul\":7817:7976   */\n      swap3\n      swap2\n      pop\n      pop\n      jump\t// out\n        /* \"#utility.yul\":7982:8339   */\n    tag_79:\n        /* \"#utility.yul\":8060:8063   */\n      0x00\n        /* \"#utility.yul\":8088:8127   */\n      tag_197\n        /* \"#utility.yul\":8121:8126   */\n      dup3\n        /* \"#utility.yul\":8088:8127   */\n      tag_68\n      jump\t// in\n    tag_197:\n        /* \"#utility.yul\":8143:8204   */\n      tag_198\n        /* \"#utility.yul\":8197:8203   */\n      dup2\n        /* \"#utility.yul\":8192:8195   */\n      dup6\n        /* \"#utility.yul\":8143:8204   */\n      tag_78\n      jump\t// in\n    tag_198:\n        /* \"#utility.yul\":8136:8204   */\n      swap4\n      pop\n        /* \"#utility.yul\":8213:8278   */\n      tag_199\n        /* \"#utility.yul\":8271:8277   */\n      dup2\n        /* \"#utility.yul\":8266:8269   */\n      dup6\n        /* \"#utility.yul\":8259:8263   */\n      0x20\n        /* \"#utility.yul\":8252:8257   */\n      dup7\n        /* \"#utility.yul\":8248:8264   */\n      add\n        /* \"#utility.yul\":8213:8278   */\n      tag_70\n      jump\t// in\n    tag_199:\n        /* \"#utility.yul\":8303:8332   */\n      tag_200\n        /* \"#utility.yul\":8325:8331   */\n      dup2\n        /* \"#utility.yul\":8303:8332   */\n      tag_54\n      jump\t// in\n    tag_200:\n        /* \"#utility.yul\":8298:8301   */\n      dup5\n        /* \"#utility.yul\":8294:8333   */\n      add\n        /* \"#utility.yul\":8287:8333   */\n      swap2\n      pop\n        /* \"#utility.yul\":8064:8339   */\n      pop\n        /* \"#utility.yul\":7982:8339   */\n      swap3\n      swap2\n      pop\n      pop\n      jump\t// out\n        /* \"#utility.yul\":8345:8453   */\n    tag_80:\n        /* \"#utility.yul\":8422:8446   */\n      tag_202\n        /* \"#utility.yul\":8440:8445   */\n      dup2\n        /* \"#utility.yul\":8422:8446   */\n      tag_65\n      jump\t// in\n    tag_202:\n        /* \"#utility.yul\":8417:8420   */\n      dup3\n        /* \"#utility.yul\":8410:8447   */\n      mstore\n        /* \"#utility.yul\":8345:8453   */\n      pop\n      pop\n      jump\t// out\n        /* \"#utility.yul\":8459:8558   */\n    tag_81:\n        /* \"#utility.yul\":8530:8551   */\n      tag_204\n        /* \"#utility.yul\":8545:8550   */\n      dup2\n        /* \"#utility.yul\":8530:8551   */\n      tag_62\n      jump\t// in\n    tag_204:\n        /* \"#utility.yul\":8525:8528   */\n      dup3\n        /* \"#utility.yul\":8518:8552   */\n      mstore\n        /* \"#utility.yul\":8459:8558   */\n      pop\n      pop\n      jump\t// out\n        /* \"#utility.yul\":8564:8672   */\n    tag_82:\n        /* \"#utility.yul\":8641:8665   */\n      tag_206\n        /* \"#utility.yul\":8659:8664   */\n      dup2\n        /* \"#utility.yul\":8641:8665   */\n      tag_49\n      jump\t// in\n    tag_206:\n        /* \"#utility.yul\":8636:8639   */\n      dup3\n        /* \"#utility.yul\":8629:8666   */\n      mstore\n        /* \"#utility.yul\":8564:8672   */\n      pop\n      pop\n      jump\t// out\n        /* \"#utility.yul\":8742:9693   */\n    tag_83:\n        /* \"#utility.yul\":8845:8848   */\n      0x00\n        /* \"#utility.yul\":8881:8885   */\n      0x80\n        /* \"#utility.yul\":8876:8879   */\n      dup4\n        /* \"#utility.yul\":8872:8886   */\n      add\n        /* \"#utility.yul\":8972:8976   */\n      0x00\n        /* \"#utility.yul\":8965:8970   */\n      dup4\n        /* \"#utility.yul\":8961:8977   */\n      add\n        /* \"#utility.yul\":8955:8978   */\n      mload\n        /* \"#utility.yul\":9025:9028   */\n      dup5\n        /* \"#utility.yul\":9019:9023   */\n      dup3\n        /* \"#utility.yul\":9015:9029   */\n      sub\n        /* \"#utility.yul\":9008:9012   */\n      0x00\n        /* \"#utility.yul\":9003:9006   */\n      dup7\n        /* \"#utility.yul\":8999:9013   */\n      add\n        /* \"#utility.yul\":8992:9030   */\n      mstore\n        /* \"#utility.yul\":9051:9124   */\n      tag_208\n        /* \"#utility.yul\":9119:9123   */\n      dup3\n        /* \"#utility.yul\":9105:9117   */\n      dup3\n        /* \"#utility.yul\":9051:9124   */\n      tag_79\n      jump\t// in\n    tag_208:\n        /* \"#utility.yul\":9043:9124   */\n      swap2\n      pop\n        /* \"#utility.yul\":8896:9135   */\n      pop\n        /* \"#utility.yul\":9222:9226   */\n      0x20\n        /* \"#utility.yul\":9215:9220   */\n      dup4\n        /* \"#utility.yul\":9211:9227   */\n      add\n        /* \"#utility.yul\":9205:9228   */\n      mload\n        /* \"#utility.yul\":9241:9304   */\n      tag_209\n        /* \"#utility.yul\":9298:9302   */\n      0x20\n        /* \"#utility.yul\":9293:9296   */\n      dup7\n        /* \"#utility.yul\":9289:9303   */\n      add\n        /* \"#utility.yul\":9275:9287   */\n      dup3\n        /* \"#utility.yul\":9241:9304   */\n      tag_80\n      jump\t// in\n    tag_209:\n        /* \"#utility.yul\":9145:9314   */\n      pop\n        /* \"#utility.yul\":9402:9406   */\n      0x40\n        /* \"#utility.yul\":9395:9400   */\n      dup4\n        /* \"#utility.yul\":9391:9407   */\n      add\n        /* \"#utility.yul\":9385:9408   */\n      mload\n        /* \"#utility.yul\":9421:9478   */\n      tag_210\n        /* \"#utility.yul\":9472:9476   */\n      0x40\n        /* \"#utility.yul\":9467:9470   */\n      dup7\n        /* \"#utility.yul\":9463:9477   */\n      add\n        /* \"#utility.yul\":9449:9461   */\n      dup3\n        /* \"#utility.yul\":9421:9478   */\n      tag_81\n      jump\t// in\n    tag_210:\n        /* \"#utility.yul\":9324:9488   */\n      pop\n        /* \"#utility.yul\":9574:9578   */\n      0x60\n        /* \"#utility.yul\":9567:9572   */\n      dup4\n        /* \"#utility.yul\":9563:9579   */\n      add\n        /* \"#utility.yul\":9557:9580   */\n      mload\n        /* \"#utility.yul\":9593:9656   */\n      tag_211\n        /* \"#utility.yul\":9650:9654   */\n      0x60\n        /* \"#utility.yul\":9645:9648   */\n      dup7\n        /* \"#utility.yul\":9641:9655   */\n      add\n        /* \"#utility.yul\":9627:9639   */\n      dup3\n        /* \"#utility.yul\":9593:9656   */\n      tag_82\n      jump\t// in\n    tag_211:\n        /* \"#utility.yul\":9498:9666   */\n      pop\n        /* \"#utility.yul\":9683:9687   */\n      dup1\n        /* \"#utility.yul\":9676:9687   */\n      swap2\n      pop\n        /* \"#utility.yul\":8850:9693   */\n      pop\n        /* \"#utility.yul\":8742:9693   */\n      swap3\n      swap2\n      pop\n      pop\n      jump\t// out\n        /* \"#utility.yul\":9699:9943   */\n    tag_84:\n        /* \"#utility.yul\":9812:9822   */\n      0x00\n        /* \"#utility.yul\":9847:9937   */\n      tag_213\n        /* \"#utility.yul\":9933:9936   */\n      dup4\n        /* \"#utility.yul\":9925:9931   */\n      dup4\n        /* \"#utility.yul\":9847:9937   */\n      tag_83\n      jump\t// in\n    tag_213:\n        /* \"#utility.yul\":9833:9937   */\n      swap1\n      pop\n        /* \"#utility.yul\":9699:9943   */\n      swap3\n      swap2\n      pop\n      pop\n      jump\t// out\n        /* \"#utility.yul\":9949:10084   */\n    tag_85:\n        /* \"#utility.yul\":10041:10045   */\n      0x00\n        /* \"#utility.yul\":10073:10077   */\n      0x20\n        /* \"#utility.yul\":10068:10071   */\n      dup3\n        /* \"#utility.yul\":10064:10078   */\n      add\n        /* \"#utility.yul\":10056:10078   */\n      swap1\n      pop\n        /* \"#utility.yul\":9949:10084   */\n      swap2\n      swap1\n      pop\n      jump\t// out\n        /* \"#utility.yul\":10158:11245   */\n    tag_86:\n        /* \"#utility.yul\":10321:10324   */\n      0x00\n        /* \"#utility.yul\":10350:10426   */\n      tag_216\n        /* \"#utility.yul\":10420:10425   */\n      dup3\n        /* \"#utility.yul\":10350:10426   */\n      tag_75\n      jump\t// in\n    tag_216:\n        /* \"#utility.yul\":10442:10550   */\n      tag_217\n        /* \"#utility.yul\":10543:10549   */\n      dup2\n        /* \"#utility.yul\":10538:10541   */\n      dup6\n        /* \"#utility.yul\":10442:10550   */\n      tag_76\n      jump\t// in\n    tag_217:\n        /* \"#utility.yul\":10435:10550   */\n      swap4\n      pop\n        /* \"#utility.yul\":10576:10579   */\n      dup4\n        /* \"#utility.yul\":10621:10625   */\n      0x20\n        /* \"#utility.yul\":10613:10619   */\n      dup3\n        /* \"#utility.yul\":10609:10626   */\n      mul\n        /* \"#utility.yul\":10604:10607   */\n      dup6\n        /* \"#utility.yul\":10600:10627   */\n      add\n        /* \"#utility.yul\":10651:10729   */\n      tag_218\n        /* \"#utility.yul\":10723:10728   */\n      dup6\n        /* \"#utility.yul\":10651:10729   */\n      tag_77\n      jump\t// in\n    tag_218:\n        /* \"#utility.yul\":10752:10759   */\n      dup1\n        /* \"#utility.yul\":10783:10784   */\n      0x00\n        /* \"#utility.yul\":10768:11200   */\n    tag_219:\n        /* \"#utility.yul\":10793:10799   */\n      dup6\n        /* \"#utility.yul\":10790:10791   */\n      dup2\n        /* \"#utility.yul\":10787:10800   */\n      lt\n        /* \"#utility.yul\":10768:11200   */\n      iszero\n      tag_221\n      jumpi\n        /* \"#utility.yul\":10864:10873   */\n      dup5\n        /* \"#utility.yul\":10858:10862   */\n      dup5\n        /* \"#utility.yul\":10854:10874   */\n      sub\n        /* \"#utility.yul\":10849:10852   */\n      dup10\n        /* \"#utility.yul\":10842:10875   */\n      mstore\n        /* \"#utility.yul\":10915:10921   */\n      dup2\n        /* \"#utility.yul\":10909:10922   */\n      mload\n        /* \"#utility.yul\":10943:11051   */\n      tag_222\n        /* \"#utility.yul\":11046:11050   */\n      dup6\n        /* \"#utility.yul\":11031:11044   */\n      dup3\n        /* \"#utility.yul\":10943:11051   */\n      tag_84\n      jump\t// in\n    tag_222:\n        /* \"#utility.yul\":10935:11051   */\n      swap5\n      pop\n        /* \"#utility.yul\":11074:11156   */\n      tag_223\n        /* \"#utility.yul\":11149:11155   */\n      dup4\n        /* \"#utility.yul\":11074:11156   */\n      tag_85\n      jump\t// in\n    tag_223:\n        /* \"#utility.yul\":11064:11156   */\n      swap3\n      pop\n        /* \"#utility.yul\":11185:11189   */\n      0x20\n        /* \"#utility.yul\":11180:11183   */\n      dup11\n        /* \"#utility.yul\":11176:11190   */\n      add\n        /* \"#utility.yul\":11169:11190   */\n      swap10\n      pop\n        /* \"#utility.yul\":10828:11200   */\n      pop\n        /* \"#utility.yul\":10815:10816   */\n      0x01\n        /* \"#utility.yul\":10812:10813   */\n      dup2\n        /* \"#utility.yul\":10808:10817   */\n      add\n        /* \"#utility.yul\":10803:10817   */\n      swap1\n      pop\n        /* \"#utility.yul\":10768:11200   */\n      jump(tag_219)\n    tag_221:\n        /* \"#utility.yul\":10772:10786   */\n      pop\n        /* \"#utility.yul\":11216:11220   */\n      dup3\n        /* \"#utility.yul\":11209:11220   */\n      swap8\n      pop\n        /* \"#utility.yul\":11236:11239   */\n      dup8\n        /* \"#utility.yul\":11229:11239   */\n      swap6\n      pop\n        /* \"#utility.yul\":10326:11245   */\n      pop\n      pop\n      pop\n      pop\n      pop\n        /* \"#utility.yul\":10158:11245   */\n      swap3\n      swap2\n      pop\n      pop\n      jump\t// out\n        /* \"#utility.yul\":11251:11712   */\n    tag_21:\n        /* \"#utility.yul\":11438:11442   */\n      0x00\n        /* \"#utility.yul\":11476:11478   */\n      0x20\n        /* \"#utility.yul\":11465:11474   */\n      dup3\n        /* \"#utility.yul\":11461:11479   */\n      add\n        /* \"#utility.yul\":11453:11479   */\n      swap1\n      pop\n        /* \"#utility.yul\":11525:11534   */\n      dup2\n        /* \"#utility.yul\":11519:11523   */\n      dup2\n        /* \"#utility.yul\":11515:11535   */\n      sub\n        /* \"#utility.yul\":11511:11512   */\n      0x00\n        /* \"#utility.yul\":11500:11509   */\n      dup4\n        /* \"#utility.yul\":11496:11513   */\n      add\n        /* \"#utility.yul\":11489:11536   */\n      mstore\n        /* \"#utility.yul\":11553:11705   */\n      tag_225\n        /* \"#utility.yul\":11700:11704   */\n      dup2\n        /* \"#utility.yul\":11691:11697   */\n      dup5\n        /* \"#utility.yul\":11553:11705   */\n      tag_86\n      jump\t// in\n    tag_225:\n        /* \"#utility.yul\":11545:11705   */\n      swap1\n      pop\n        /* \"#utility.yul\":11251:11712   */\n      swap3\n      swap2\n      pop\n      pop\n      jump\t// out\n        /* \"#utility.yul\":11718:11898   */\n    tag_87:\n        /* \"#utility.yul\":11766:11843   */\n      0x4e487b7100000000000000000000000000000000000000000000000000000000\n        /* \"#utility.yul\":11763:11764   */\n      0x00\n        /* \"#utility.yul\":11756:11844   */\n      mstore\n        /* \"#utility.yul\":11863:11867   */\n      0x22\n        /* \"#utility.yul\":11860:11861   */\n      0x04\n        /* \"#utility.yul\":11853:11868   */\n      mstore\n        /* \"#utility.yul\":11887:11891   */\n      0x24\n        /* \"#utility.yul\":11884:11885   */\n      0x00\n        /* \"#utility.yul\":11877:11892   */\n      revert\n        /* \"#utility.yul\":11904:12224   */\n    tag_31:\n        /* \"#utility.yul\":11948:11954   */\n      0x00\n        /* \"#utility.yul\":11985:11986   */\n      0x02\n        /* \"#utility.yul\":11979:11983   */\n      dup3\n        /* \"#utility.yul\":11975:11987   */\n      div\n        /* \"#utility.yul\":11965:11987   */\n      swap1\n      pop\n        /* \"#utility.yul\":12032:12033   */\n      0x01\n        /* \"#utility.yul\":12026:12030   */\n      dup3\n        /* \"#utility.yul\":12022:12034   */\n      and\n        /* \"#utility.yul\":12053:12071   */\n      dup1\n        /* \"#utility.yul\":12043:12124   */\n      tag_228\n      jumpi\n        /* \"#utility.yul\":12109:12113   */\n      0x7f\n        /* \"#utility.yul\":12101:12107   */\n      dup3\n        /* \"#utility.yul\":12097:12114   */\n      and\n        /* \"#utility.yul\":12087:12114   */\n      swap2\n      pop\n        /* \"#utility.yul\":12043:12124   */\n    tag_228:\n        /* \"#utility.yul\":12171:12173   */\n      0x20\n        /* \"#utility.yul\":12163:12169   */\n      dup3\n        /* \"#utility.yul\":12160:12174   */\n      lt\n        /* \"#utility.yul\":12140:12158   */\n      dup2\n        /* \"#utility.yul\":12137:12175   */\n      sub\n        /* \"#utility.yul\":12134:12218   */\n      tag_229\n      jumpi\n        /* \"#utility.yul\":12190:12208   */\n      tag_230\n      tag_87\n      jump\t// in\n    tag_230:\n        /* \"#utility.yul\":12134:12218   */\n    tag_229:\n        /* \"#utility.yul\":11955:12224   */\n      pop\n        /* \"#utility.yul\":11904:12224   */\n      swap2\n      swap1\n      pop\n      jump\t// out\n        /* \"#utility.yul\":12230:12371   */\n    tag_88:\n        /* \"#utility.yul\":12279:12283   */\n      0x00\n        /* \"#utility.yul\":12302:12305   */\n      dup2\n        /* \"#utility.yul\":12294:12305   */\n      swap1\n      pop\n        /* \"#utility.yul\":12325:12328   */\n      dup2\n        /* \"#utility.yul\":12322:12323   */\n      0x00\n        /* \"#utility.yul\":12315:12329   */\n      mstore\n        /* \"#utility.yul\":12359:12363   */\n      0x20\n        /* \"#utility.yul\":12356:12357   */\n      0x00\n        /* \"#utility.yul\":12346:12364   */\n      keccak256\n        /* \"#utility.yul\":12338:12364   */\n      swap1\n      pop\n        /* \"#utility.yul\":12230:12371   */\n      swap2\n      swap1\n      pop\n      jump\t// out\n        /* \"#utility.yul\":12377:12470   */\n    tag_89:\n        /* \"#utility.yul\":12414:12420   */\n      0x00\n        /* \"#utility.yul\":12461:12463   */\n      0x20\n        /* \"#utility.yul\":12456:12458   */\n      0x1f\n        /* \"#utility.yul\":12449:12454   */\n      dup4\n        /* \"#utility.yul\":12445:12459   */\n      add\n        /* \"#utility.yul\":12441:12464   */\n      div\n        /* \"#utility.yul\":12431:12464   */\n      swap1\n      pop\n        /* \"#utility.yul\":12377:12470   */\n      swap2\n      swap1\n      pop\n      jump\t// out\n        /* \"#utility.yul\":12476:12583   */\n    tag_90:\n        /* \"#utility.yul\":12520:12528   */\n      0x00\n        /* \"#utility.yul\":12570:12575   */\n      dup3\n        /* \"#utility.yul\":12564:12568   */\n      dup3\n        /* \"#utility.yul\":12560:12576   */\n      shl\n        /* \"#utility.yul\":12539:12576   */\n      swap1\n      pop\n        /* \"#utility.yul\":12476:12583   */\n      swap3\n      swap2\n      pop\n      pop\n      jump\t// out\n        /* \"#utility.yul\":12589:12982   */\n    tag_91:\n        /* \"#utility.yul\":12658:12664   */\n      0x00\n        /* \"#utility.yul\":12708:12709   */\n      0x08\n        /* \"#utility.yul\":12696:12706   */\n      dup4\n        /* \"#utility.yul\":12692:12710   */\n      mul\n        /* \"#utility.yul\":12731:12828   */\n      tag_235\n        /* \"#utility.yul\":12761:12827   */\n      0xffffffffffffffffffffffffffffffffffffffffffffffffffffffffffffffff\n        /* \"#utility.yul\":12750:12759   */\n      dup3\n        /* \"#utility.yul\":12731:12828   */\n      tag_90\n      jump\t// in\n    tag_235:\n        /* \"#utility.yul\":12849:12888   */\n      tag_236\n        /* \"#utility.yul\":12879:12887   */\n      dup7\n        /* \"#utility.yul\":12868:12877   */\n      dup4\n        /* \"#utility.yul\":12849:12888   */\n      tag_90\n      jump\t// in\n    tag_236:\n        /* \"#utility.yul\":12837:12888   */\n      swap6\n      pop\n        /* \"#utility.yul\":12921:12925   */\n      dup1\n        /* \"#utility.yul\":12917:12926   */\n      not\n        /* \"#utility.yul\":12910:12915   */\n      dup5\n        /* \"#utility.yul\":12906:12927   */\n      and\n        /* \"#utility.yul\":12897:12927   */\n      swap4\n      pop\n        /* \"#utility.yul\":12970:12974   */\n      dup1\n        /* \"#utility.yul\":12960:12968   */\n      dup7\n        /* \"#utility.yul\":12956:12975   */\n      and\n        /* \"#utility.yul\":12949:12954   */\n      dup5\n        /* \"#utility.yul\":12946:12976   */\n      or\n        /* \"#utility.yul\":12936:12976   */\n      swap3\n      pop\n        /* \"#utility.yul\":12665:12982   */\n      pop\n      pop\n        /* \"#utility.yul\":12589:12982   */\n      swap4\n      swap3\n      pop\n      pop\n      pop\n      jump\t// out\n        /* \"#utility.yul\":12988:13048   */\n    tag_92:\n        /* \"#utility.yul\":13016:13019   */\n      0x00\n        /* \"#utility.yul\":13037:13042   */\n      dup2\n        /* \"#utility.yul\":13030:13042   */\n      swap1\n      pop\n        /* \"#utility.yul\":12988:13048   */\n      swap2\n      swap1\n      pop\n      jump\t// out\n        /* \"#utility.yul\":13054:13196   */\n    tag_93:\n        /* \"#utility.yul\":13104:13113   */\n      0x00\n        /* \"#utility.yul\":13137:13190   */\n      tag_239\n        /* \"#utility.yul\":13155:13189   */\n      tag_240\n        /* \"#utility.yul\":13164:13188   */\n      tag_241\n        /* \"#utility.yul\":13182:13187   */\n      dup5\n        /* \"#utility.yul\":13164:13188   */\n      tag_65\n      jump\t// in\n    tag_241:\n        /* \"#utility.yul\":13155:13189   */\n      tag_92\n      jump\t// in\n    tag_240:\n        /* \"#utility.yul\":13137:13190   */\n      tag_65\n      jump\t// in\n    tag_239:\n        /* \"#utility.yul\":13124:13190   */\n      swap1\n      pop\n        /* \"#utility.yul\":13054:13196   */\n      swap2\n      swap1\n      pop\n      jump\t// out\n        /* \"#utility.yul\":13202:13277   */\n    tag_94:\n        /* \"#utility.yul\":13245:13248   */\n      0x00\n        /* \"#utility.yul\":13266:13271   */\n      dup2\n        /* \"#utility.yul\":13259:13271   */\n      swap1\n      pop\n        /* \"#utility.yul\":13202:13277   */\n      swap2\n      swap1\n      pop\n      jump\t// out\n        /* \"#utility.yul\":13283:13552   */\n    tag_95:\n        /* \"#utility.yul\":13393:13432   */\n      tag_244\n        /* \"#utility.yul\":13424:13431   */\n      dup4\n        /* \"#utility.yul\":13393:13432   */\n      tag_93\n      jump\t// in\n    tag_244:\n        /* \"#utility.yul\":13454:13545   */\n      tag_245\n        /* \"#utility.yul\":13503:13544   */\n      tag_246\n        /* \"#utility.yul\":13527:13543   */\n      dup3\n        /* \"#utility.yul\":13503:13544   */\n      tag_94\n      jump\t// in\n    tag_246:\n        /* \"#utility.yul\":13495:13501   */\n      dup5\n        /* \"#utility.yul\":13488:13492   */\n      dup5\n        /* \"#utility.yul\":13482:13493   */\n      sload\n        /* \"#utility.yul\":13454:13545   */\n      tag_91\n      jump\t// in\n    tag_245:\n        /* \"#utility.yul\":13448:13452   */\n      dup3\n        /* \"#utility.yul\":13441:13546   */\n      sstore\n        /* \"#utility.yul\":13359:13552   */\n      pop\n        /* \"#utility.yul\":13283:13552   */\n      pop\n      pop\n      pop\n      jump\t// out\n        /* \"#utility.yul\":13558:13631   */\n    tag_96:\n        /* \"#utility.yul\":13603:13606   */\n      0x00\n        /* \"#utility.yul\":13558:13631   */\n      swap1\n      jump\t// out\n        /* \"#utility.yul\":13637:13826   */\n    tag_97:\n        /* \"#utility.yul\":13714:13746   */\n      tag_249\n      tag_96\n      jump\t// in\n    tag_249:\n        /* \"#utility.yul\":13755:13820   */\n      tag_250\n        /* \"#utility.yul\":13813:13819   */\n      dup2\n        /* \"#utility.yul\":13805:13811   */\n      dup5\n        /* \"#utility.yul\":13799:13803   */\n      dup5\n        /* \"#utility.yul\":13755:13820   */\n      tag_95\n      jump\t// in\n    tag_250:\n        /* \"#utility.yul\":13690:13826   */\n      pop\n        /* \"#utility.yul\":13637:13826   */\n      pop\n      pop\n      jump\t// out\n        /* \"#utility.yul\":13832:14018   */\n    tag_98:\n        /* \"#utility.yul\":13892:14012   */\n    tag_252:\n        /* \"#utility.yul\":13909:13912   */\n      dup2\n        /* \"#utility.yul\":13902:13907   */\n      dup2\n        /* \"#utility.yul\":13899:13913   */\n      lt\n        /* \"#utility.yul\":13892:14012   */\n      iszero\n      tag_254\n      jumpi\n        /* \"#utility.yul\":13963:14002   */\n      tag_255\n        /* \"#utility.yul\":14000:14001   */\n      0x00\n        /* \"#utility.yul\":13993:13998   */\n      dup3\n        /* \"#utility.yul\":13963:14002   */\n      tag_97\n      jump\t// in\n    tag_255:\n        /* \"#utility.yul\":13936:13937   */\n      0x01\n        /* \"#utility.yul\":13929:13934   */\n      dup2\n        /* \"#utility.yul\":13925:13938   */\n      add\n        /* \"#utility.yul\":13916:13938   */\n      swap1\n      pop\n        /* \"#utility.yul\":13892:14012   */\n      jump(tag_252)\n    tag_254:\n        /* \"#utility.yul\":13832:14018   */\n      pop\n      pop\n      jump\t// out\n        /* \"#utility.yul\":14024:14567   */\n    tag_99:\n        /* \"#utility.yul\":14125:14127   */\n      0x1f\n        /* \"#utility.yul\":14120:14123   */\n      dup3\n        /* \"#utility.yul\":14117:14128   */\n      gt\n        /* \"#utility.yul\":14114:14560   */\n      iszero\n      tag_257\n      jumpi\n        /* \"#utility.yul\":14159:14197   */\n      tag_258\n        /* \"#utility.yul\":14191:14196   */\n      dup2\n        /* \"#utility.yul\":14159:14197   */\n      tag_88\n      jump\t// in\n    tag_258:\n        /* \"#utility.yul\":14243:14272   */\n      tag_259\n        /* \"#utility.yul\":14261:14271   */\n      dup5\n        /* \"#utility.yul\":14243:14272   */\n      tag_89\n      jump\t// in\n    tag_259:\n        /* \"#utility.yul\":14233:14241   */\n      dup2\n        /* \"#utility.yul\":14229:14273   */\n      add\n        /* \"#utility.yul\":14426:14428   */\n      0x20\n        /* \"#utility.yul\":14414:14424   */\n      dup6\n        /* \"#utility.yul\":14411:14429   */\n      lt\n        /* \"#utility.yul\":14408:14457   */\n      iszero\n      tag_260\n      jumpi\n        /* \"#utility.yul\":14447:14455   */\n      dup2\n        /* \"#utility.yul\":14432:14455   */\n      swap1\n      pop\n        /* \"#utility.yul\":14408:14457   */\n    tag_260:\n        /* \"#utility.yul\":14470:14550   */\n      tag_261\n        /* \"#utility.yul\":14526:14548   */\n      tag_262\n        /* \"#utility.yul\":14544:14547   */\n      dup6\n        /* \"#utility.yul\":14526:14548   */\n      tag_89\n      jump\t// in\n    tag_262:\n        /* \"#utility.yul\":14516:14524   */\n      dup4\n        /* \"#utility.yul\":14512:14549   */\n      add\n        /* \"#utility.yul\":14499:14510   */\n      dup3\n        /* \"#utility.yul\":14470:14550   */\n      tag_98\n      jump\t// in\n    tag_261:\n        /* \"#utility.yul\":14129:14560   */\n      pop\n      pop\n        /* \"#utility.yul\":14114:14560   */\n    tag_257:\n        /* \"#utility.yul\":14024:14567   */\n      pop\n      pop\n      pop\n      jump\t// out\n        /* \"#utility.yul\":14573:14690   */\n    tag_100:\n        /* \"#utility.yul\":14627:14635   */\n      0x00\n        /* \"#utility.yul\":14677:14682   */\n      dup3\n        /* \"#utility.yul\":14671:14675   */\n      dup3\n        /* \"#utility.yul\":14667:14683   */\n      shr\n        /* \"#utility.yul\":14646:14683   */\n      swap1\n      pop\n        /* \"#utility.yul\":14573:14690   */\n      swap3\n      swap2\n      pop\n      pop\n      jump\t// out\n        /* \"#utility.yul\":14696:14865   */\n    tag_101:\n        /* \"#utility.yul\":14740:14746   */\n      0x00\n        /* \"#utility.yul\":14773:14824   */\n      tag_265\n        /* \"#utility.yul\":14821:14822   */\n      0x00\n        /* \"#utility.yul\":14817:14823   */\n      not\n        /* \"#utility.yul\":14809:14814   */\n      dup5\n        /* \"#utility.yul\":14806:14807   */\n      0x08\n        /* \"#utility.yul\":14802:14815   */\n      mul\n        /* \"#utility.yul\":14773:14824   */\n      tag_100\n      jump\t// in\n    tag_265:\n        /* \"#utility.yul\":14769:14825   */\n      not\n        /* \"#utility.yul\":14854:14858   */\n      dup1\n        /* \"#utility.yul\":14848:14852   */\n      dup4\n        /* \"#utility.yul\":14844:14859   */\n      and\n        /* \"#utility.yul\":14834:14859   */\n      swap2\n      pop\n        /* \"#utility.yul\":14747:14865   */\n      pop\n        /* \"#utility.yul\":14696:14865   */\n      swap3\n      swap2\n      pop\n      pop\n      jump\t// out\n        /* \"#utility.yul\":14870:15165   */\n    tag_102:\n        /* \"#utility.yul\":14946:14950   */\n      0x00\n        /* \"#utility.yul\":15092:15121   */\n      tag_267\n        /* \"#utility.yul\":15117:15120   */\n      dup4\n        /* \"#utility.yul\":15111:15115   */\n      dup4\n        /* \"#utility.yul\":15092:15121   */\n      tag_101\n      jump\t// in\n    tag_267:\n        /* \"#utility.yul\":15084:15121   */\n      swap2\n      pop\n        /* \"#utility.yul\":15154:15157   */\n      dup3\n        /* \"#utility.yul\":15151:15152   */\n      0x02\n        /* \"#utility.yul\":15147:15158   */\n      mul\n        /* \"#utility.yul\":15141:15145   */\n      dup3\n        /* \"#utility.yul\":15138:15159   */\n      or\n        /* \"#utility.yul\":15130:15159   */\n      swap1\n      pop\n        /* \"#utility.yul\":14870:15165   */\n      swap3\n      swap2\n      pop\n      pop\n      jump\t// out\n        /* \"#utility.yul\":15170:16565   */\n    tag_25:\n        /* \"#utility.yul\":15287:15324   */\n      tag_269\n        /* \"#utility.yul\":15320:15323   */\n      dup3\n        /* \"#utility.yul\":15287:15324   */\n      tag_68\n      jump\t// in\n    tag_269:\n        /* \"#utility.yul\":15389:15407   */\n      0xffffffffffffffff\n        /* \"#utility.yul\":15381:15387   */\n      dup2\n        /* \"#utility.yul\":15378:15408   */\n      gt\n        /* \"#utility.yul\":15375:15431   */\n      iszero\n      tag_270\n      jumpi\n        /* \"#utility.yul\":15411:15429   */\n      tag_271\n      tag_55\n      jump\t// in\n    tag_271:\n        /* \"#utility.yul\":15375:15431   */\n    tag_270:\n        /* \"#utility.yul\":15455:15493   */\n      tag_272\n        /* \"#utility.yul\":15487:15491   */\n      dup3\n        /* \"#utility.yul\":15481:15492   */\n      sload\n        /* \"#utility.yul\":15455:15493   */\n      tag_31\n      jump\t// in\n    tag_272:\n        /* \"#utility.yul\":15540:15607   */\n      tag_273\n        /* \"#utility.yul\":15600:15606   */\n      dup3\n        /* \"#utility.yul\":15592:15598   */\n      dup3\n        /* \"#utility.yul\":15586:15590   */\n      dup6\n        /* \"#utility.yul\":15540:15607   */\n      tag_99\n      jump\t// in\n    tag_273:\n        /* \"#utility.yul\":15634:15635   */\n      0x00\n        /* \"#utility.yul\":15658:15662   */\n      0x20\n        /* \"#utility.yul\":15645:15662   */\n      swap1\n      pop\n        /* \"#utility.yul\":15690:15692   */\n      0x1f\n        /* \"#utility.yul\":15682:15688   */\n      dup4\n        /* \"#utility.yul\":15679:15693   */\n      gt\n        /* \"#utility.yul\":15707:15708   */\n      0x01\n        /* \"#utility.yul\":15702:16320   */\n      dup2\n      eq\n      tag_275\n      jumpi\n        /* \"#utility.yul\":16364:16365   */\n      0x00\n        /* \"#utility.yul\":16381:16387   */\n      dup5\n        /* \"#utility.yul\":16378:16455   */\n      iszero\n      tag_276\n      jumpi\n        /* \"#utility.yul\":16430:16439   */\n      dup3\n        /* \"#utility.yul\":16425:16428   */\n      dup8\n        /* \"#utility.yul\":16421:16440   */\n      add\n        /* \"#utility.yul\":16415:16441   */\n      mload\n        /* \"#utility.yul\":16406:16441   */\n      swap1\n      pop\n        /* \"#utility.yul\":16378:16455   */\n    tag_276:\n        /* \"#utility.yul\":16481:16548   */\n      tag_277\n        /* \"#utility.yul\":16541:16547   */\n      dup6\n        /* \"#utility.yul\":16534:16539   */\n      dup3\n        /* \"#utility.yul\":16481:16548   */\n      tag_102\n      jump\t// in\n    tag_277:\n        /* \"#utility.yul\":16475:16479   */\n      dup7\n        /* \"#utility.yul\":16468:16549   */\n      sstore\n        /* \"#utility.yul\":16337:16559   */\n      pop\n        /* \"#utility.yul\":15672:16559   */\n      jump(tag_274)\n        /* \"#utility.yul\":15702:16320   */\n    tag_275:\n        /* \"#utility.yul\":15754:15758   */\n      0x1f\n        /* \"#utility.yul\":15750:15759   */\n      not\n        /* \"#utility.yul\":15742:15748   */\n      dup5\n        /* \"#utility.yul\":15738:15760   */\n      and\n        /* \"#utility.yul\":15788:15825   */\n      tag_278\n        /* \"#utility.yul\":15820:15824   */\n      dup7\n        /* \"#utility.yul\":15788:15825   */\n      tag_88\n      jump\t// in\n    tag_278:\n        /* \"#utility.yul\":15847:15848   */\n      0x00\n        /* \"#utility.yul\":15861:16069   */\n    tag_279:\n        /* \"#utility.yul\":15875:15882   */\n      dup3\n        /* \"#utility.yul\":15872:15873   */\n      dup2\n        /* \"#utility.yul\":15869:15883   */\n      lt\n        /* \"#utility.yul\":15861:16069   */\n      iszero\n      tag_281\n      jumpi\n        /* \"#utility.yul\":15954:15963   */\n      dup5\n        /* \"#utility.yul\":15949:15952   */\n      dup10\n        /* \"#utility.yul\":15945:15964   */\n      add\n        /* \"#utility.yul\":15939:15965   */\n      mload\n        /* \"#utility.yul\":15931:15937   */\n      dup3\n        /* \"#utility.yul\":15924:15966   */\n      sstore\n        /* \"#utility.yul\":16005:16006   */\n      0x01\n        /* \"#utility.yul\":15997:16003   */\n      dup3\n        /* \"#utility.yul\":15993:16007   */\n      add\n        /* \"#utility.yul\":15983:16007   */\n      swap2\n      pop\n        /* \"#utility.yul\":16052:16054   */\n      0x20\n        /* \"#utility.yul\":16041:16050   */\n      dup6\n        /* \"#utility.yul\":16037:16055   */\n      add\n        /* \"#utility.yul\":16024:16055   */\n      swap5\n      pop\n        /* \"#utility.yul\":15898:15902   */\n      0x20\n        /* \"#utility.yul\":15895:15896   */\n      dup2\n        /* \"#utility.yul\":15891:15903   */\n      add\n        /* \"#utility.yul\":15886:15903   */\n      swap1\n      pop\n        /* \"#utility.yul\":15861:16069   */\n      jump(tag_279)\n    tag_281:\n        /* \"#utility.yul\":16097:16103   */\n      dup7\n        /* \"#utility.yul\":16088:16095   */\n      dup4\n        /* \"#utility.yul\":16085:16104   */\n      lt\n        /* \"#utility.yul\":16082:16261   */\n      iszero\n      tag_282\n      jumpi\n        /* \"#utility.yul\":16155:16164   */\n      dup5\n        /* \"#utility.yul\":16150:16153   */\n      dup10\n        /* \"#utility.yul\":16146:16165   */\n      add\n        /* \"#utility.yul\":16140:16166   */\n      mload\n        /* \"#utility.yul\":16198:16246   */\n      tag_283\n        /* \"#utility.yul\":16240:16244   */\n      0x1f\n        /* \"#utility.yul\":16232:16238   */\n      dup10\n        /* \"#utility.yul\":16228:16245   */\n      and\n        /* \"#utility.yul\":16217:16226   */\n      dup3\n        /* \"#utility.yul\":16198:16246   */\n      tag_101\n      jump\t// in\n    tag_283:\n        /* \"#utility.yul\":16190:16196   */\n      dup4\n        /* \"#utility.yul\":16183:16247   */\n      sstore\n        /* \"#utility.yul\":16105:16261   */\n      pop\n        /* \"#utility.yul\":16082:16261   */\n    tag_282:\n        /* \"#utility.yul\":16307:16308   */\n      0x01\n        /* \"#utility.yul\":16303:16304   */\n      0x02\n        /* \"#utility.yul\":16295:16301   */\n      dup9\n        /* \"#utility.yul\":16291:16305   */\n      mul\n        /* \"#utility.yul\":16287:16309   */\n      add\n        /* \"#utility.yul\":16281:16285   */\n      dup9\n        /* \"#utility.yul\":16274:16310   */\n      sstore\n        /* \"#utility.yul\":15709:16320   */\n      pop\n      pop\n      pop\n        /* \"#utility.yul\":15672:16559   */\n    tag_274:\n      pop\n        /* \"#utility.yul\":15262:16565   */\n      pop\n      pop\n      pop\n        /* \"#utility.yul\":15170:16565   */\n      pop\n      pop\n      jump\t// out\n        /* \"#utility.yul\":16571:17092   */\n    tag_27:\n        /* \"#utility.yul\":16734:16738   */\n      0x00\n        /* \"#utility.yul\":16772:16774   */\n      0x60\n        /* \"#utility.yul\":16761:16770   */\n      dup3\n        /* \"#utility.yul\":16757:16775   */\n      add\n        /* \"#utility.yul\":16749:16775   */\n      swap1\n      pop\n        /* \"#utility.yul\":16821:16830   */\n      dup2\n        /* \"#utility.yul\":16815:16819   */\n      dup2\n        /* \"#utility.yul\":16811:16831   */\n      sub\n        /* \"#utility.yul\":16807:16808   */\n      0x00\n        /* \"#utility.yul\":16796:16805   */\n      dup4\n        /* \"#utility.yul\":16792:16809   */\n      add\n        /* \"#utility.yul\":16785:16832   */\n      mstore\n        /* \"#utility.yul\":16849:16927   */\n      tag_285\n        /* \"#utility.yul\":16922:16926   */\n      dup2\n        /* \"#utility.yul\":16913:16919   */\n      dup7\n        /* \"#utility.yul\":16849:16927   */\n      tag_71\n      jump\t// in\n    tag_285:\n        /* \"#utility.yul\":16841:16927   */\n      swap1\n      pop\n        /* \"#utility.yul\":16937:17003   */\n      tag_286\n        /* \"#utility.yul\":16999:17001   */\n      0x20\n        /* \"#utility.yul\":16988:16997   */\n      dup4\n        /* \"#utility.yul\":16984:17002   */\n      add\n        /* \"#utility.yul\":16975:16981   */\n      dup6\n        /* \"#utility.yul\":16937:17003   */\n      tag_73\n      jump\t// in\n    tag_286:\n        /* \"#utility.yul\":17013:17085   */\n      tag_287\n        /* \"#utility.yul\":17081:17083   */\n      0x40\n        /* \"#utility.yul\":17070:17079   */\n      dup4\n        /* \"#utility.yul\":17066:17084   */\n      add\n        /* \"#utility.yul\":17057:17063   */\n      dup5\n        /* \"#utility.yul\":17013:17085   */\n      tag_72\n      jump\t// in\n    tag_287:\n        /* \"#utility.yul\":16571:17092   */\n      swap5\n      swap4\n      pop\n      pop\n      pop\n      pop\n      jump\t// out\n\n    auxdata: 0xa2646970667358221220c90ae570cddeec75eda518c1463b7117d09002f4db61d526457ba6625f5a8e6664736f6c63430008130033\n}\n",
				"bytecode": {
					"linkReferences": {},
					"object": "608060405234801561001057600080fd5b50610e01806100206000396000f3fe608060405234801561001057600080fd5b50600436106100415760003560e01c80631a156f491461004657806394f0df6114610062578063a0076e8414610095575b600080fd5b610060600480360381019061005b91906106e7565b6100c5565b005b61007c6004803603810190610077919061078c565b61024b565b60405161008c9493929190610878565b60405180910390f35b6100af60048036038101906100aa91906108c4565b61034d565b6040516100bc9190610a8d565b60405180910390f35b6000604051806080016040528084815260200142815260200183151581526020013373ffffffffffffffffffffffffffffffffffffffff1681525090506000808573ffffffffffffffffffffffffffffffffffffffff1673ffffffffffffffffffffffffffffffffffffffff168152602001908152602001600020819080600181540180825580915050600190039060005260206000209060030201600090919091909150600082015181600001908161017f9190610cbb565b506020820151816001015560408201518160020160006101000a81548160ff02191690831515021790555060608201518160020160016101000a81548173ffffffffffffffffffffffffffffffffffffffff021916908373ffffffffffffffffffffffffffffffffffffffff16021790555050508373ffffffffffffffffffffffffffffffffffffffff167febf8dbe094a4be25a952cf77bc8e0c3fd015174225bd26f66d60eca4def5afab84844260405161023d93929190610d8d565b60405180910390a250505050565b6000602052816000526040600020818154811061026757600080fd5b90600052602060002090600302016000915091505080600001805461028b90610ade565b80601f01602080910402602001604051908101604052809291908181526020018280546102b790610ade565b80156103045780601f106102d957610100808354040283529160200191610304565b820191906000526020600020905b8154815290600101906020018083116102e757829003601f168201915b5050505050908060010154908060020160009054906101000a900460ff16908060020160019054906101000a900473ffffffffffffffffffffffffffffffffffffffff16905084565b60606000808373ffffffffffffffffffffffffffffffffffffffff1673ffffffffffffffffffffffffffffffffffffffff168152602001908152602001600020805480602002602001604051908101604052809291908181526020016000905b828210156104ec57838290600052602060002090600302016040518060800160405290816000820180546103e090610ade565b80601f016020809104026020016040519081016040528092919081815260200182805461040c90610ade565b80156104595780601f1061042e57610100808354040283529160200191610459565b820191906000526020600020905b81548152906001019060200180831161043c57829003601f168201915b50505050508152602001600182015481526020016002820160009054906101000a900460ff161515151581526020016002820160019054906101000a900473ffffffffffffffffffffffffffffffffffffffff1673ffffffffffffffffffffffffffffffffffffffff1673ffffffffffffffffffffffffffffffffffffffff1681525050815260200190600101906103ad565b505050509050919050565b6000604051905090565b600080fd5b600080fd5b600073ffffffffffffffffffffffffffffffffffffffff82169050919050565b60006105368261050b565b9050919050565b6105468161052b565b811461055157600080fd5b50565b6000813590506105638161053d565b92915050565b600080fd5b600080fd5b6000601f19601f8301169050919050565b7f4e487b7100000000000000000000000000000000000000000000000000000000600052604160045260246000fd5b6105bc82610573565b810181811067ffffffffffffffff821117156105db576105da610584565b5b80604052505050565b60006105ee6104f7565b90506105fa82826105b3565b919050565b600067ffffffffffffffff82111561061a57610619610584565b5b61062382610573565b9050602081019050919050565b82818337600083830152505050565b600061065261064d846105ff565b6105e4565b90508281526020810184848401111561066e5761066d61056e565b5b610679848285610630565b509392505050565b600082601f83011261069657610695610569565b5b81356106a684826020860161063f565b91505092915050565b60008115159050919050565b6106c4816106af565b81146106cf57600080fd5b50565b6000813590506106e1816106bb565b92915050565b600080600060608486031215610700576106ff610501565b5b600061070e86828701610554565b935050602084013567ffffffffffffffff81111561072f5761072e610506565b5b61073b86828701610681565b925050604061074c868287016106d2565b9150509250925092565b6000819050919050565b61076981610756565b811461077457600080fd5b50565b60008135905061078681610760565b92915050565b600080604083850312156107a3576107a2610501565b5b60006107b185828601610554565b92505060206107c285828601610777565b9150509250929050565b600081519050919050565b600082825260208201905092915050565b60005b838110156108065780820151818401526020810190506107eb565b60008484015250505050565b600061081d826107cc565b61082781856107d7565b93506108378185602086016107e8565b61084081610573565b840191505092915050565b61085481610756565b82525050565b610863816106af565b82525050565b6108728161052b565b82525050565b600060808201905081810360008301526108928187610812565b90506108a1602083018661084b565b6108ae604083018561085a565b6108bb6060830184610869565b95945050505050565b6000602082840312156108da576108d9610501565b5b60006108e884828501610554565b91505092915050565b600081519050919050565b600082825260208201905092915050565b6000819050602082019050919050565b600082825260208201905092915050565b6000610939826107cc565b610943818561091d565b93506109538185602086016107e8565b61095c81610573565b840191505092915050565b61097081610756565b82525050565b61097f816106af565b82525050565b61098e8161052b565b82525050565b600060808301600083015184820360008601526109b1828261092e565b91505060208301516109c66020860182610967565b5060408301516109d96040860182610976565b5060608301516109ec6060860182610985565b508091505092915050565b6000610a038383610994565b905092915050565b6000602082019050919050565b6000610a23826108f1565b610a2d81856108fc565b935083602082028501610a3f8561090d565b8060005b85811015610a7b5784840389528151610a5c85826109f7565b9450610a6783610a0b565b925060208a01995050600181019050610a43565b50829750879550505050505092915050565b60006020820190508181036000830152610aa78184610a18565b905092915050565b7f4e487b7100000000000000000000000000000000000000000000000000000000600052602260045260246000fd5b60006002820490506001821680610af657607f821691505b602082108103610b0957610b08610aaf565b5b50919050565b60008190508160005260206000209050919050565b60006020601f8301049050919050565b600082821b905092915050565b600060088302610b717fffffffffffffffffffffffffffffffffffffffffffffffffffffffffffffffff82610b34565b610b7b8683610b34565b95508019841693508086168417925050509392505050565b6000819050919050565b6000610bb8610bb3610bae84610756565b610b93565b610756565b9050919050565b6000819050919050565b610bd283610b9d565b610be6610bde82610bbf565b848454610b41565b825550505050565b600090565b610bfb610bee565b610c06818484610bc9565b505050565b5b81811015610c2a57610c1f600082610bf3565b600181019050610c0c565b5050565b601f821115610c6f57610c4081610b0f565b610c4984610b24565b81016020851015610c58578190505b610c6c610c6485610b24565b830182610c0b565b50505b505050565b600082821c905092915050565b6000610c9260001984600802610c74565b1980831691505092915050565b6000610cab8383610c81565b9150826002028217905092915050565b610cc4826107cc565b67ffffffffffffffff811115610cdd57610cdc610584565b5b610ce78254610ade565b610cf2828285610c2e565b600060209050601f831160018114610d255760008415610d13578287015190505b610d1d8582610c9f565b865550610d85565b601f198416610d3386610b0f565b60005b82811015610d5b57848901518255600182019150602085019450602081019050610d36565b86831015610d785784890151610d74601f891682610c81565b8355505b6001600288020188555050505b505050505050565b60006060820190508181036000830152610da78186610812565b9050610db6602083018561085a565b610dc3604083018461084b565b94935050505056fea2646970667358221220c90ae570cddeec75eda518c1463b7117d09002f4db61d526457ba6625f5a8e6664736f6c63430008130033",
					"opcodes": "PUSH1 0x80 PUSH1 0x40 MSTORE CALLVALUE DUP1 ISZERO PUSH2 0x10 JUMPI PUSH1 0x0 DUP1 REVERT JUMPDEST POP PUSH2 0xE01 DUP1 PUSH2 0x20 PUSH1 0x0 CODECOPY PUSH1 0x0 RETURN INVALID PUSH1 0x80 PUSH1 0x40 MSTORE CALLVALUE DUP1 ISZERO PUSH2 0x10 JUMPI PUSH1 0x0 DUP1 REVERT JUMPDEST POP PUSH1 0x4 CALLDATASIZE LT PUSH2 0x41 JUMPI PUSH1 0x0 CALLDATALOAD PUSH1 0xE0 SHR DUP1 PUSH4 0x1A156F49 EQ PUSH2 0x46 JUMPI DUP1 PUSH4 0x94F0DF61 EQ PUSH2 0x62 JUMPI DUP1 PUSH4 0xA0076E84 EQ PUSH2 0x95 JUMPI JUMPDEST PUSH1 0x0 DUP1 REVERT JUMPDEST PUSH2 0x60 PUSH1 0x4 DUP1 CALLDATASIZE SUB DUP2 ADD SWAP1 PUSH2 0x5B SWAP2 SWAP1 PUSH2 0x6E7 JUMP JUMPDEST PUSH2 0xC5 JUMP JUMPDEST STOP JUMPDEST PUSH2 0x7C PUSH1 0x4 DUP1 CALLDATASIZE SUB DUP2 ADD SWAP1 PUSH2 0x77 SWAP2 SWAP1 PUSH2 0x78C JUMP JUMPDEST PUSH2 0x24B JUMP JUMPDEST PUSH1 0x40 MLOAD PUSH2 0x8C SWAP5 SWAP4 SWAP3 SWAP2 SWAP1 PUSH2 0x878 JUMP JUMPDEST PUSH1 0x40 MLOAD DUP1 SWAP2 SUB SWAP1 RETURN JUMPDEST PUSH2 0xAF PUSH1 0x4 DUP1 CALLDATASIZE SUB DUP2 ADD SWAP1 PUSH2 0xAA SWAP2 SWAP1 PUSH2 0x8C4 JUMP JUMPDEST PUSH2 0x34D JUMP JUMPDEST PUSH1 0x40 MLOAD PUSH2 0xBC SWAP2 SWAP1 PUSH2 0xA8D JUMP JUMPDEST PUSH1 0x40 MLOAD DUP1 SWAP2 SUB SWAP1 RETURN JUMPDEST PUSH1 0x0 PUSH1 0x40 MLOAD DUP1 PUSH1 0x80 ADD PUSH1 0x40 MSTORE DUP1 DUP5 DUP2 MSTORE PUSH1 0x20 ADD TIMESTAMP DUP2 MSTORE PUSH1 0x20 ADD DUP4 ISZERO ISZERO DUP2 MSTORE PUSH1 0x20 ADD CALLER PUSH20 0xFFFFFFFFFFFFFFFFFFFFFFFFFFFFFFFFFFFFFFFF AND DUP2 MSTORE POP SWAP1 POP PUSH1 0x0 DUP1 DUP6 PUSH20 0xFFFFFFFFFFFFFFFFFFFFFFFFFFFFFFFFFFFFFFFF AND PUSH20 0xFFFFFFFFFFFFFFFFFFFFFFFFFFFFFFFFFFFFFFFF AND DUP2 MSTORE PUSH1 0x20 ADD SWAP1 DUP2 MSTORE PUSH1 0x20 ADD PUSH1 0x0 KECCAK256 DUP2 SWAP1 DUP1 PUSH1 0x1 DUP2 SLOAD ADD DUP1 DUP3 SSTORE DUP1 SWAP2 POP POP PUSH1 0x1 SWAP1 SUB SWAP1 PUSH1 0x0 MSTORE PUSH1 0x20 PUSH1 0x0 KECCAK256 SWAP1 PUSH1 0x3 MUL ADD PUSH1 0x0 SWAP1 SWAP2 SWAP1 SWAP2 SWAP1 SWAP2 POP PUSH1 0x0 DUP3 ADD MLOAD DUP2 PUSH1 0x0 ADD SWAP1 DUP2 PUSH2 0x17F SWAP2 SWAP1 PUSH2 0xCBB JUMP JUMPDEST POP PUSH1 0x20 DUP3 ADD MLOAD DUP2 PUSH1 0x1 ADD SSTORE PUSH1 0x40 DUP3 ADD MLOAD DUP2 PUSH1 0x2 ADD PUSH1 0x0 PUSH2 0x100 EXP DUP2 SLOAD DUP2 PUSH1 0xFF MUL NOT AND SWAP1 DUP4 ISZERO ISZERO MUL OR SWAP1 SSTORE POP PUSH1 0x60 DUP3 ADD MLOAD DUP2 PUSH1 0x2 ADD PUSH1 0x1 PUSH2 0x100 EXP DUP2 SLOAD DUP2 PUSH20 0xFFFFFFFFFFFFFFFFFFFFFFFFFFFFFFFFFFFFFFFF MUL NOT AND SWAP1 DUP4 PUSH20 0xFFFFFFFFFFFFFFFFFFFFFFFFFFFFFFFFFFFFFFFF AND MUL OR SWAP1 SSTORE POP POP POP DUP4 PUSH20 0xFFFFFFFFFFFFFFFFFFFFFFFFFFFFFFFFFFFFFFFF AND PUSH32 0xEBF8DBE094A4BE25A952CF77BC8E0C3FD015174225BD26F66D60ECA4DEF5AFAB DUP5 DUP5 TIMESTAMP PUSH1 0x40 MLOAD PUSH2 0x23D SWAP4 SWAP3 SWAP2 SWAP1 PUSH2 0xD8D JUMP JUMPDEST PUSH1 0x40 MLOAD DUP1 SWAP2 SUB SWAP1 LOG2 POP POP POP POP JUMP JUMPDEST PUSH1 0x0 PUSH1 0x20 MSTORE DUP2 PUSH1 0x0 MSTORE PUSH1 0x40 PUSH1 0x0 KECCAK256 DUP2 DUP2 SLOAD DUP2 LT PUSH2 0x267 JUMPI PUSH1 0x0 DUP1 REVERT JUMPDEST SWAP1 PUSH1 0x0 MSTORE PUSH1 0x20 PUSH1 0x0 KECCAK256 SWAP1 PUSH1 0x3 MUL ADD PUSH1 0x0 SWAP2 POP SWAP2 POP POP DUP1 PUSH1 0x0 ADD DUP1 SLOAD PUSH2 0x28B SWAP1 PUSH2 0xADE JUMP JUMPDEST DUP1 PUSH1 0x1F ADD PUSH1 0x20 DUP1 SWAP2 DIV MUL PUSH1 0x20 ADD PUSH1 0x40 MLOAD SWAP1 DUP2 ADD PUSH1 0x40 MSTORE DUP1 SWAP3 SWAP2 SWAP1 DUP2 DUP2 MSTORE PUSH1 0x20 ADD DUP3 DUP1 SLOAD PUSH2 0x2B7 SWAP1 PUSH2 0xADE JUMP JUMPDEST DUP1 ISZERO PUSH2 0x304 JUMPI DUP1 PUSH1 0x1F LT PUSH2 0x2D9 JUMPI PUSH2 0x100 DUP1 DUP4 SLOAD DIV MUL DUP4 MSTORE SWAP2 PUSH1 0x20 ADD SWAP2 PUSH2 0x304 JUMP JUMPDEST DUP3 ADD SWAP2 SWAP1 PUSH1 0x0 MSTORE PUSH1 0x20 PUSH1 0x0 KECCAK256 SWAP1 JUMPDEST DUP2 SLOAD DUP2 MSTORE SWAP1 PUSH1 0x1 ADD SWAP1 PUSH1 0x20 ADD DUP1 DUP4 GT PUSH2 0x2E7 JUMPI DUP3 SWAP1 SUB PUSH1 0x1F AND DUP3 ADD SWAP2 JUMPDEST POP POP POP POP POP SWAP1 DUP1 PUSH1 0x1 ADD SLOAD SWAP1 DUP1 PUSH1 0x2 ADD PUSH1 0x0 SWAP1 SLOAD SWAP1 PUSH2 0x100 EXP SWAP1 DIV PUSH1 0xFF AND SWAP1 DUP1 PUSH1 0x2 ADD PUSH1 0x1 SWAP1 SLOAD SWAP1 PUSH2 0x100 EXP SWAP1 DIV PUSH20 0xFFFFFFFFFFFFFFFFFFFFFFFFFFFFFFFFFFFFFFFF AND SWAP1 POP DUP5 JUMP JUMPDEST PUSH1 0x60 PUSH1 0x0 DUP1 DUP4 PUSH20 0xFFFFFFFFFFFFFFFFFFFFFFFFFFFFFFFFFFFFFFFF AND PUSH20 0xFFFFFFFFFFFFFFFFFFFFFFFFFFFFFFFFFFFFFFFF AND DUP2 MSTORE PUSH1 0x20 ADD SWAP1 DUP2 MSTORE PUSH1 0x20 ADD PUSH1 0x0 KECCAK256 DUP1 SLOAD DUP1 PUSH1 0x20 MUL PUSH1 0x20 ADD PUSH1 0x40 MLOAD SWAP1 DUP2 ADD PUSH1 0x40 MSTORE DUP1 SWAP3 SWAP2 SWAP1 DUP2 DUP2 MSTORE PUSH1 0x20 ADD PUSH1 0x0 SWAP1 JUMPDEST DUP3 DUP3 LT ISZERO PUSH2 0x4EC JUMPI DUP4 DUP3 SWAP1 PUSH1 0x0 MSTORE PUSH1 0x20 PUSH1 0x0 KECCAK256 SWAP1 PUSH1 0x3 MUL ADD PUSH1 0x40 MLOAD DUP1 PUSH1 0x80 ADD PUSH1 0x40 MSTORE SWAP1 DUP2 PUSH1 0x0 DUP3 ADD DUP1 SLOAD PUSH2 0x3E0 SWAP1 PUSH2 0xADE JUMP JUMPDEST DUP1 PUSH1 0x1F ADD PUSH1 0x20 DUP1 SWAP2 DIV MUL PUSH1 0x20 ADD PUSH1 0x40 MLOAD SWAP1 DUP2 ADD PUSH1 0x40 MSTORE DUP1 SWAP3 SWAP2 SWAP1 DUP2 DUP2 MSTORE PUSH1 0x20 ADD DUP3 DUP1 SLOAD PUSH2 0x40C SWAP1 PUSH2 0xADE JUMP JUMPDEST DUP1 ISZERO PUSH2 0x459 JUMPI DUP1 PUSH1 0x1F LT PUSH2 0x42E JUMPI PUSH2 0x100 DUP1 DUP4 SLOAD DIV MUL DUP4 MSTORE SWAP2 PUSH1 0x20 ADD SWAP2 PUSH2 0x459 JUMP JUMPDEST DUP3 ADD SWAP2 SWAP1 PUSH1 0x0 MSTORE PUSH1 0x20 PUSH1 0x0 KECCAK256 SWAP1 JUMPDEST DUP2 SLOAD DUP2 MSTORE SWAP1 PUSH1 0x1 ADD SWAP1 PUSH1 0x20 ADD DUP1 DUP4 GT PUSH2 0x43C JUMPI DUP3 SWAP1 SUB PUSH1 0x1F AND DUP3 ADD SWAP2 JUMPDEST POP POP POP POP POP DUP2 MSTORE PUSH1 0x20 ADD PUSH1 0x1 DUP3 ADD SLOAD DUP2 MSTORE PUSH1 0x20 ADD PUSH1 0x2 DUP3 ADD PUSH1 0x0 SWAP1 SLOAD SWAP1 PUSH2 0x100 EXP SWAP1 DIV PUSH1 0xFF AND ISZERO ISZERO ISZERO ISZERO DUP2 MSTORE PUSH1 0x20 ADD PUSH1 0x2 DUP3 ADD PUSH1 0x1 SWAP1 SLOAD SWAP1 PUSH2 0x100 EXP SWAP1 DIV PUSH20 0xFFFFFFFFFFFFFFFFFFFFFFFFFFFFFFFFFFFFFFFF AND PUSH20 0xFFFFFFFFFFFFFFFFFFFFFFFFFFFFFFFFFFFFFFFF AND PUSH20 0xFFFFFFFFFFFFFFFFFFFFFFFFFFFFFFFFFFFFFFFF AND DUP2 MSTORE POP POP DUP2 MSTORE PUSH1 0x20 ADD SWAP1 PUSH1 0x1 ADD SWAP1 PUSH2 0x3AD JUMP JUMPDEST POP POP POP POP SWAP1 POP SWAP2 SWAP1 POP JUMP JUMPDEST PUSH1 0x0 PUSH1 0x40 MLOAD SWAP1 POP SWAP1 JUMP JUMPDEST PUSH1 0x0 DUP1 REVERT JUMPDEST PUSH1 0x0 DUP1 REVERT JUMPDEST PUSH1 0x0 PUSH20 0xFFFFFFFFFFFFFFFFFFFFFFFFFFFFFFFFFFFFFFFF DUP3 AND SWAP1 POP SWAP2 SWAP1 POP JUMP JUMPDEST PUSH1 0x0 PUSH2 0x536 DUP3 PUSH2 0x50B JUMP JUMPDEST SWAP1 POP SWAP2 SWAP1 POP JUMP JUMPDEST PUSH2 0x546 DUP2 PUSH2 0x52B JUMP JUMPDEST DUP2 EQ PUSH2 0x551 JUMPI PUSH1 0x0 DUP1 REVERT JUMPDEST POP JUMP JUMPDEST PUSH1 0x0 DUP2 CALLDATALOAD SWAP1 POP PUSH2 0x563 DUP2 PUSH2 0x53D JUMP JUMPDEST SWAP3 SWAP2 POP POP JUMP JUMPDEST PUSH1 0x0 DUP1 REVERT JUMPDEST PUSH1 0x0 DUP1 REVERT JUMPDEST PUSH1 0x0 PUSH1 0x1F NOT PUSH1 0x1F DUP4 ADD AND SWAP1 POP SWAP2 SWAP1 POP JUMP JUMPDEST PUSH32 0x4E487B7100000000000000000000000000000000000000000000000000000000 PUSH1 0x0 MSTORE PUSH1 0x41 PUSH1 0x4 MSTORE PUSH1 0x24 PUSH1 0x0 REVERT JUMPDEST PUSH2 0x5BC DUP3 PUSH2 0x573 JUMP JUMPDEST DUP2 ADD DUP2 DUP2 LT PUSH8 0xFFFFFFFFFFFFFFFF DUP3 GT OR ISZERO PUSH2 0x5DB JUMPI PUSH2 0x5DA PUSH2 0x584 JUMP JUMPDEST JUMPDEST DUP1 PUSH1 0x40 MSTORE POP POP POP JUMP JUMPDEST PUSH1 0x0 PUSH2 0x5EE PUSH2 0x4F7 JUMP JUMPDEST SWAP1 POP PUSH2 0x5FA DUP3 DUP3 PUSH2 0x5B3 JUMP JUMPDEST SWAP2 SWAP1 POP JUMP JUMPDEST PUSH1 0x0 PUSH8 0xFFFFFFFFFFFFFFFF DUP3 GT ISZERO PUSH2 0x61A JUMPI PUSH2 0x619 PUSH2 0x584 JUMP JUMPDEST JUMPDEST PUSH2 0x623 DUP3 PUSH2 0x573 JUMP JUMPDEST SWAP1 POP PUSH1 0x20 DUP2 ADD SWAP1 POP SWAP2 SWAP1 POP JUMP JUMPDEST DUP3 DUP2 DUP4 CALLDATACOPY PUSH1 0x0 DUP4 DUP4 ADD MSTORE POP POP POP JUMP JUMPDEST PUSH1 0x0 PUSH2 0x652 PUSH2 0x64D DUP5 PUSH2 0x5FF JUMP JUMPDEST PUSH2 0x5E4 JUMP JUMPDEST SWAP1 POP DUP3 DUP2 MSTORE PUSH1 0x20 DUP2 ADD DUP5 DUP5 DUP5 ADD GT ISZERO PUSH2 0x66E JUMPI PUSH2 0x66D PUSH2 0x56E JUMP JUMPDEST JUMPDEST PUSH2 0x679 DUP5 DUP3 DUP6 PUSH2 0x630 JUMP JUMPDEST POP SWAP4 SWAP3 POP POP POP JUMP JUMPDEST PUSH1 0x0 DUP3 PUSH1 0x1F DUP4 ADD SLT PUSH2 0x696 JUMPI PUSH2 0x695 PUSH2 0x569 JUMP JUMPDEST JUMPDEST DUP2 CALLDATALOAD PUSH2 0x6A6 DUP5 DUP3 PUSH1 0x20 DUP7 ADD PUSH2 0x63F JUMP JUMPDEST SWAP2 POP POP SWAP3 SWAP2 POP POP JUMP JUMPDEST PUSH1 0x0 DUP2 ISZERO ISZERO SWAP1 POP SWAP2 SWAP1 POP JUMP JUMPDEST PUSH2 0x6C4 DUP2 PUSH2 0x6AF JUMP JUMPDEST DUP2 EQ PUSH2 0x6CF JUMPI PUSH1 0x0 DUP1 REVERT JUMPDEST POP JUMP JUMPDEST PUSH1 0x0 DUP2 CALLDATALOAD SWAP1 POP PUSH2 0x6E1 DUP2 PUSH2 0x6BB JUMP JUMPDEST SWAP3 SWAP2 POP POP JUMP JUMPDEST PUSH1 0x0 DUP1 PUSH1 0x0 PUSH1 0x60 DUP5 DUP7 SUB SLT ISZERO PUSH2 0x700 JUMPI PUSH2 0x6FF PUSH2 0x501 JUMP JUMPDEST JUMPDEST PUSH1 0x0 PUSH2 0x70E DUP7 DUP3 DUP8 ADD PUSH2 0x554 JUMP JUMPDEST SWAP4 POP POP PUSH1 0x20 DUP5 ADD CALLDATALOAD PUSH8 0xFFFFFFFFFFFFFFFF DUP2 GT ISZERO PUSH2 0x72F JUMPI PUSH2 0x72E PUSH2 0x506 JUMP JUMPDEST JUMPDEST PUSH2 0x73B DUP7 DUP3 DUP8 ADD PUSH2 0x681 JUMP JUMPDEST SWAP3 POP POP PUSH1 0x40 PUSH2 0x74C DUP7 DUP3 DUP8 ADD PUSH2 0x6D2 JUMP JUMPDEST SWAP2 POP POP SWAP3 POP SWAP3 POP SWAP3 JUMP JUMPDEST PUSH1 0x0 DUP2 SWAP1 POP SWAP2 SWAP1 POP JUMP JUMPDEST PUSH2 0x769 DUP2 PUSH2 0x756 JUMP JUMPDEST DUP2 EQ PUSH2 0x774 JUMPI PUSH1 0x0 DUP1 REVERT JUMPDEST POP JUMP JUMPDEST PUSH1 0x0 DUP2 CALLDATALOAD SWAP1 POP PUSH2 0x786 DUP2 PUSH2 0x760 JUMP JUMPDEST SWAP3 SWAP2 POP POP JUMP JUMPDEST PUSH1 0x0 DUP1 PUSH1 0x40 DUP4 DUP6 SUB SLT ISZERO PUSH2 0x7A3 JUMPI PUSH2 0x7A2 PUSH2 0x501 JUMP JUMPDEST JUMPDEST PUSH1 0x0 PUSH2 0x7B1 DUP6 DUP3 DUP7 ADD PUSH2 0x554 JUMP JUMPDEST SWAP3 POP POP PUSH1 0x20 PUSH2 0x7C2 DUP6 DUP3 DUP7 ADD PUSH2 0x777 JUMP JUMPDEST SWAP2 POP POP SWAP3 POP SWAP3 SWAP1 POP JUMP JUMPDEST PUSH1 0x0 DUP2 MLOAD SWAP1 POP SWAP2 SWAP1 POP JUMP JUMPDEST PUSH1 0x0 DUP3 DUP3 MSTORE PUSH1 0x20 DUP3 ADD SWAP1 POP SWAP3 SWAP2 POP POP JUMP JUMPDEST PUSH1 0x0 JUMPDEST DUP4 DUP2 LT ISZERO PUSH2 0x806 JUMPI DUP1 DUP3 ADD MLOAD DUP2 DUP5 ADD MSTORE PUSH1 0x20 DUP2 ADD SWAP1 POP PUSH2 0x7EB JUMP JUMPDEST PUSH1 0x0 DUP5 DUP5 ADD MSTORE POP POP POP POP JUMP JUMPDEST PUSH1 0x0 PUSH2 0x81D DUP3 PUSH2 0x7CC JUMP JUMPDEST PUSH2 0x827 DUP2 DUP6 PUSH2 0x7D7 JUMP JUMPDEST SWAP4 POP PUSH2 0x837 DUP2 DUP6 PUSH1 0x20 DUP7 ADD PUSH2 0x7E8 JUMP JUMPDEST PUSH2 0x840 DUP2 PUSH2 0x573 JUMP JUMPDEST DUP5 ADD SWAP2 POP POP SWAP3 SWAP2 POP POP JUMP JUMPDEST PUSH2 0x854 DUP2 PUSH2 0x756 JUMP JUMPDEST DUP3 MSTORE POP POP JUMP JUMPDEST PUSH2 0x863 DUP2 PUSH2 0x6AF JUMP JUMPDEST DUP3 MSTORE POP POP JUMP JUMPDEST PUSH2 0x872 DUP2 PUSH2 0x52B JUMP JUMPDEST DUP3 MSTORE POP POP JUMP JUMPDEST PUSH1 0x0 PUSH1 0x80 DUP3 ADD SWAP1 POP DUP2 DUP2 SUB PUSH1 0x0 DUP4 ADD MSTORE PUSH2 0x892 DUP2 DUP8 PUSH2 0x812 JUMP JUMPDEST SWAP1 POP PUSH2 0x8A1 PUSH1 0x20 DUP4 ADD DUP7 PUSH2 0x84B JUMP JUMPDEST PUSH2 0x8AE PUSH1 0x40 DUP4 ADD DUP6 PUSH2 0x85A JUMP JUMPDEST PUSH2 0x8BB PUSH1 0x60 DUP4 ADD DUP5 PUSH2 0x869 JUMP JUMPDEST SWAP6 SWAP5 POP POP POP POP POP JUMP JUMPDEST PUSH1 0x0 PUSH1 0x20 DUP3 DUP5 SUB SLT ISZERO PUSH2 0x8DA JUMPI PUSH2 0x8D9 PUSH2 0x501 JUMP JUMPDEST JUMPDEST PUSH1 0x0 PUSH2 0x8E8 DUP5 DUP3 DUP6 ADD PUSH2 0x554 JUMP JUMPDEST SWAP2 POP POP SWAP3 SWAP2 POP POP JUMP JUMPDEST PUSH1 0x0 DUP2 MLOAD SWAP1 POP SWAP2 SWAP1 POP JUMP JUMPDEST PUSH1 0x0 DUP3 DUP3 MSTORE PUSH1 0x20 DUP3 ADD SWAP1 POP SWAP3 SWAP2 POP POP JUMP JUMPDEST PUSH1 0x0 DUP2 SWAP1 POP PUSH1 0x20 DUP3 ADD SWAP1 POP SWAP2 SWAP1 POP JUMP JUMPDEST PUSH1 0x0 DUP3 DUP3 MSTORE PUSH1 0x20 DUP3 ADD SWAP1 POP SWAP3 SWAP2 POP POP JUMP JUMPDEST PUSH1 0x0 PUSH2 0x939 DUP3 PUSH2 0x7CC JUMP JUMPDEST PUSH2 0x943 DUP2 DUP6 PUSH2 0x91D JUMP JUMPDEST SWAP4 POP PUSH2 0x953 DUP2 DUP6 PUSH1 0x20 DUP7 ADD PUSH2 0x7E8 JUMP JUMPDEST PUSH2 0x95C DUP2 PUSH2 0x573 JUMP JUMPDEST DUP5 ADD SWAP2 POP POP SWAP3 SWAP2 POP POP JUMP JUMPDEST PUSH2 0x970 DUP2 PUSH2 0x756 JUMP JUMPDEST DUP3 MSTORE POP POP JUMP JUMPDEST PUSH2 0x97F DUP2 PUSH2 0x6AF JUMP JUMPDEST DUP3 MSTORE POP POP JUMP JUMPDEST PUSH2 0x98E DUP2 PUSH2 0x52B JUMP JUMPDEST DUP3 MSTORE POP POP JUMP JUMPDEST PUSH1 0x0 PUSH1 0x80 DUP4 ADD PUSH1 0x0 DUP4 ADD MLOAD DUP5 DUP3 SUB PUSH1 0x0 DUP7 ADD MSTORE PUSH2 0x9B1 DUP3 DUP3 PUSH2 0x92E JUMP JUMPDEST SWAP2 POP POP PUSH1 0x20 DUP4 ADD MLOAD PUSH2 0x9C6 PUSH1 0x20 DUP7 ADD DUP3 PUSH2 0x967 JUMP JUMPDEST POP PUSH1 0x40 DUP4 ADD MLOAD PUSH2 0x9D9 PUSH1 0x40 DUP7 ADD DUP3 PUSH2 0x976 JUMP JUMPDEST POP PUSH1 0x60 DUP4 ADD MLOAD PUSH2 0x9EC PUSH1 0x60 DUP7 ADD DUP3 PUSH2 0x985 JUMP JUMPDEST POP DUP1 SWAP2 POP POP SWAP3 SWAP2 POP POP JUMP JUMPDEST PUSH1 0x0 PUSH2 0xA03 DUP4 DUP4 PUSH2 0x994 JUMP JUMPDEST SWAP1 POP SWAP3 SWAP2 POP POP JUMP JUMPDEST PUSH1 0x0 PUSH1 0x20 DUP3 ADD SWAP1 POP SWAP2 SWAP1 POP JUMP JUMPDEST PUSH1 0x0 PUSH2 0xA23 DUP3 PUSH2 0x8F1 JUMP JUMPDEST PUSH2 0xA2D DUP2 DUP6 PUSH2 0x8FC JUMP JUMPDEST SWAP4 POP DUP4 PUSH1 0x20 DUP3 MUL DUP6 ADD PUSH2 0xA3F DUP6 PUSH2 0x90D JUMP JUMPDEST DUP1 PUSH1 0x0 JUMPDEST DUP6 DUP2 LT ISZERO PUSH2 0xA7B JUMPI DUP5 DUP5 SUB DUP10 MSTORE DUP2 MLOAD PUSH2 0xA5C DUP6 DUP3 PUSH2 0x9F7 JUMP JUMPDEST SWAP5 POP PUSH2 0xA67 DUP4 PUSH2 0xA0B JUMP JUMPDEST SWAP3 POP PUSH1 0x20 DUP11 ADD SWAP10 POP POP PUSH1 0x1 DUP2 ADD SWAP1 POP PUSH2 0xA43 JUMP JUMPDEST POP DUP3 SWAP8 POP DUP8 SWAP6 POP POP POP POP POP POP SWAP3 SWAP2 POP POP JUMP JUMPDEST PUSH1 0x0 PUSH1 0x20 DUP3 ADD SWAP1 POP DUP2 DUP2 SUB PUSH1 0x0 DUP4 ADD MSTORE PUSH2 0xAA7 DUP2 DUP5 PUSH2 0xA18 JUMP JUMPDEST SWAP1 POP SWAP3 SWAP2 POP POP JUMP JUMPDEST PUSH32 0x4E487B7100000000000000000000000000000000000000000000000000000000 PUSH1 0x0 MSTORE PUSH1 0x22 PUSH1 0x4 MSTORE PUSH1 0x24 PUSH1 0x0 REVERT JUMPDEST PUSH1 0x0 PUSH1 0x2 DUP3 DIV SWAP1 POP PUSH1 0x1 DUP3 AND DUP1 PUSH2 0xAF6 JUMPI PUSH1 0x7F DUP3 AND SWAP2 POP JUMPDEST PUSH1 0x20 DUP3 LT DUP2 SUB PUSH2 0xB09 JUMPI PUSH2 0xB08 PUSH2 0xAAF JUMP JUMPDEST JUMPDEST POP SWAP2 SWAP1 POP JUMP JUMPDEST PUSH1 0x0 DUP2 SWAP1 POP DUP2 PUSH1 0x0 MSTORE PUSH1 0x20 PUSH1 0x0 KECCAK256 SWAP1 POP SWAP2 SWAP1 POP JUMP JUMPDEST PUSH1 0x0 PUSH1 0x20 PUSH1 0x1F DUP4 ADD DIV SWAP1 POP SWAP2 SWAP1 POP JUMP JUMPDEST PUSH1 0x0 DUP3 DUP3 SHL SWAP1 POP SWAP3 SWAP2 POP POP JUMP JUMPDEST PUSH1 0x0 PUSH1 0x8 DUP4 MUL PUSH2 0xB71 PUSH32 0xFFFFFFFFFFFFFFFFFFFFFFFFFFFFFFFFFFFFFFFFFFFFFFFFFFFFFFFFFFFFFFFF DUP3 PUSH2 0xB34 JUMP JUMPDEST PUSH2 0xB7B DUP7 DUP4 PUSH2 0xB34 JUMP JUMPDEST SWAP6 POP DUP1 NOT DUP5 AND SWAP4 POP DUP1 DUP7 AND DUP5 OR SWAP3 POP POP POP SWAP4 SWAP3 POP POP POP JUMP JUMPDEST PUSH1 0x0 DUP2 SWAP1 POP SWAP2 SWAP1 POP JUMP JUMPDEST PUSH1 0x0 PUSH2 0xBB8 PUSH2 0xBB3 PUSH2 0xBAE DUP5 PUSH2 0x756 JUMP JUMPDEST PUSH2 0xB93 JUMP JUMPDEST PUSH2 0x756 JUMP JUMPDEST SWAP1 POP SWAP2 SWAP1 POP JUMP JUMPDEST PUSH1 0x0 DUP2 SWAP1 POP SWAP2 SWAP1 POP JUMP JUMPDEST PUSH2 0xBD2 DUP4 PUSH2 0xB9D JUMP JUMPDEST PUSH2 0xBE6 PUSH2 0xBDE DUP3 PUSH2 0xBBF JUMP JUMPDEST DUP5 DUP5 SLOAD PUSH2 0xB41 JUMP JUMPDEST DUP3 SSTORE POP POP POP POP JUMP JUMPDEST PUSH1 0x0 SWAP1 JUMP JUMPDEST PUSH2 0xBFB PUSH2 0xBEE JUMP JUMPDEST PUSH2 0xC06 DUP2 DUP5 DUP5 PUSH2 0xBC9 JUMP JUMPDEST POP POP POP JUMP JUMPDEST JUMPDEST DUP2 DUP2 LT ISZERO PUSH2 0xC2A JUMPI PUSH2 0xC1F PUSH1 0x0 DUP3 PUSH2 0xBF3 JUMP JUMPDEST PUSH1 0x1 DUP2 ADD SWAP1 POP PUSH2 0xC0C JUMP JUMPDEST POP POP JUMP JUMPDEST PUSH1 0x1F DUP3 GT ISZERO PUSH2 0xC6F JUMPI PUSH2 0xC40 DUP2 PUSH2 0xB0F JUMP JUMPDEST PUSH2 0xC49 DUP5 PUSH2 0xB24 JUMP JUMPDEST DUP2 ADD PUSH1 0x20 DUP6 LT ISZERO PUSH2 0xC58 JUMPI DUP2 SWAP1 POP JUMPDEST PUSH2 0xC6C PUSH2 0xC64 DUP6 PUSH2 0xB24 JUMP JUMPDEST DUP4 ADD DUP3 PUSH2 0xC0B JUMP JUMPDEST POP POP JUMPDEST POP POP POP JUMP JUMPDEST PUSH1 0x0 DUP3 DUP3 SHR SWAP1 POP SWAP3 SWAP2 POP POP JUMP JUMPDEST PUSH1 0x0 PUSH2 0xC92 PUSH1 0x0 NOT DUP5 PUSH1 0x8 MUL PUSH2 0xC74 JUMP JUMPDEST NOT DUP1 DUP4 AND SWAP2 POP POP SWAP3 SWAP2 POP POP JUMP JUMPDEST PUSH1 0x0 PUSH2 0xCAB DUP4 DUP4 PUSH2 0xC81 JUMP JUMPDEST SWAP2 POP DUP3 PUSH1 0x2 MUL DUP3 OR SWAP1 POP SWAP3 SWAP2 POP POP JUMP JUMPDEST PUSH2 0xCC4 DUP3 PUSH2 0x7CC JUMP JUMPDEST PUSH8 0xFFFFFFFFFFFFFFFF DUP2 GT ISZERO PUSH2 0xCDD JUMPI PUSH2 0xCDC PUSH2 0x584 JUMP JUMPDEST JUMPDEST PUSH2 0xCE7 DUP3 SLOAD PUSH2 0xADE JUMP JUMPDEST PUSH2 0xCF2 DUP3 DUP3 DUP6 PUSH2 0xC2E JUMP JUMPDEST PUSH1 0x0 PUSH1 0x20 SWAP1 POP PUSH1 0x1F DUP4 GT PUSH1 0x1 DUP2 EQ PUSH2 0xD25 JUMPI PUSH1 0x0 DUP5 ISZERO PUSH2 0xD13 JUMPI DUP3 DUP8 ADD MLOAD SWAP1 POP JUMPDEST PUSH2 0xD1D DUP6 DUP3 PUSH2 0xC9F JUMP JUMPDEST DUP7 SSTORE POP PUSH2 0xD85 JUMP JUMPDEST PUSH1 0x1F NOT DUP5 AND PUSH2 0xD33 DUP7 PUSH2 0xB0F JUMP JUMPDEST PUSH1 0x0 JUMPDEST DUP3 DUP2 LT ISZERO PUSH2 0xD5B JUMPI DUP5 DUP10 ADD MLOAD DUP3 SSTORE PUSH1 0x1 DUP3 ADD SWAP2 POP PUSH1 0x20 DUP6 ADD SWAP5 POP PUSH1 0x20 DUP2 ADD SWAP1 POP PUSH2 0xD36 JUMP JUMPDEST DUP7 DUP4 LT ISZERO PUSH2 0xD78 JUMPI DUP5 DUP10 ADD MLOAD PUSH2 0xD74 PUSH1 0x1F DUP10 AND DUP3 PUSH2 0xC81 JUMP JUMPDEST DUP4 SSTORE POP JUMPDEST PUSH1 0x1 PUSH1 0x2 DUP9 MUL ADD DUP9 SSTORE POP POP POP JUMPDEST POP POP POP POP POP POP JUMP JUMPDEST PUSH1 0x0 PUSH1 0x60 DUP3 ADD SWAP1 POP DUP2 DUP2 SUB PUSH1 0x0 DUP4 ADD MSTORE PUSH2 0xDA7 DUP2 DUP7 PUSH2 0x812 JUMP JUMPDEST SWAP1 POP PUSH2 0xDB6 PUSH1 0x20 DUP4 ADD DUP6 PUSH2 0x85A JUMP JUMPDEST PUSH2 0xDC3 PUSH1 0x40 DUP4 ADD DUP5 PUSH2 0x84B JUMP JUMPDEST SWAP5 SWAP4 POP POP POP POP JUMP INVALID LOG2 PUSH5 0x6970667358 0x22 SLT KECCAK256 0xC9 EXP 0xE5 PUSH17 0xCDDEEC75EDA518C1463B7117D09002F4DB PUSH2 0xD526 GASLIMIT PUSH28 0xA6625F5A8E6664736F6C634300081300330000000000000000000000 "
				},
				"gasEstimates": {
					"creation": {
						"codeDepositCost": "717000",
						"executionCost": "753",
						"totalCost": "717753"
					},
					"external": {
						"addRecord(address,string,bool)": "infinite",
						"getRecords(address)": "infinite",
						"patientRecords(address,uint256)": "infinite"
					}
				},
				"methodIdentifiers": {
					"addRecord(address,string,bool)": "1a156f49",
					"getRecords(address)": "a0076e84",
					"patientRecords(address,uint256)": "94f0df61"
				}
			},
			"storageLayout": {
				"storage": [
					{
						"astId": 16,
						"contract": "HealthContract.sol:HealthRecord",
						"label": "patientRecords",
						"offset": 0,
						"slot": "0",
						"type": "t_mapping(t_address,t_array(t_struct(Record)10_storage)dyn_storage)"
					}
				],
				"types": {
					"t_address": {
						"encoding": "inplace",
						"label": "address",
						"numberOfBytes": "20"
					},
					"t_array(t_struct(Record)10_storage)dyn_storage": {
						"base": "t_struct(Record)10_storage",
						"encoding": "dynamic_array",
						"label": "struct HealthRecord.Record[]",
						"numberOfBytes": "32"
					},
					"t_bool": {
						"encoding": "inplace",
						"label": "bool",
						"numberOfBytes": "1"
					},
					"t_mapping(t_address,t_array(t_struct(Record)10_storage)dyn_storage)": {
						"encoding": "mapping",
						"key": "t_address",
						"label": "mapping(address => struct HealthRecord.Record[])",
						"numberOfBytes": "32",
						"value": "t_array(t_struct(Record)10_storage)dyn_storage"
					},
					"t_string_storage": {
						"encoding": "bytes",
						"label": "string",
						"numberOfBytes": "32"
					},
					"t_struct(Record)10_storage": {
						"encoding": "inplace",
						"label": "struct HealthRecord.Record",
						"members": [
							{
								"astId": 3,
								"contract": "HealthContract.sol:HealthRecord",
								"label": "ipfsHash",
								"offset": 0,
								"slot": "0",
								"type": "t_string_storage"
							},
							{
								"astId": 5,
								"contract": "HealthContract.sol:HealthRecord",
								"label": "timestamp",
								"offset": 0,
								"slot": "1",
								"type": "t_uint256"
							},
							{
								"astId": 7,
								"contract": "HealthContract.sol:HealthRecord",
								"label": "isCritical",
								"offset": 0,
								"slot": "2",
								"type": "t_bool"
							},
							{
								"astId": 9,
								"contract": "HealthContract.sol:HealthRecord",
								"label": "deviceId",
								"offset": 1,
								"slot": "2",
								"type": "t_address"
							}
						],
						"numberOfBytes": "96"
					},
					"t_uint256": {
						"encoding": "inplace",
						"label": "uint256",
						"numberOfBytes": "32"
					}
				}
			},
			"userdoc": {
				"kind": "user",
				"methods": {},
				"version": 1
			}
		}
	}
}